:100000000C9438010C9469010C9469010C946901F9
:100010000C9469010C9469010C9469010C946901B8
:100020000C9469010C9469010C9469010C946901A8
:100030000C9469010C9469010C9469010C94690198
:100040000C9469010C942F090C9469010C946901BA
:100050000C9469010C9469010C9469010C945B087F
:100060000C9469010C9469010C9469010C94690168
:100070000C9469010C9469010C9469010C94690158
:100080000C9401090C9469010C9469010C946901A8
:100090000C9469010C9469010C9469010C94690138
:1000A0000C9469010C9469010C94D3080C946901B7
:1000B0000C9469010C9469010C9469010C94A508D5
:1000C0000C9469010C9469010C9469010C94690108
:1000D0000C9469010C9469010C9469010C946901F8
:1000E0000C9469010C947C020C9476020C94FE0131
:1000F0000C948A020C9453020C948E020C944F02BE
:100100000C9457020C945E020C945B020C940D0C40
:100110000C94EC020C9449020C9468020C94720248
:100120000C9484020C9486060C9480020C94890230
:100130000C946E020C94BC0C0C9402080C94640297
:100140000C9485060C942C030C94BB020000210037
:10015000240027002A002D00300033000101000098
:10016000040107010A0100002200250028002B00DD
:100170002E003100340002010000050108010B01CE
:10018000000020002300260029002C002F00320050
:100190000001000003010601090105050505070529
:1001A00008080808020202020A0A080804040404F3
:1001B000010101010101010103030303030303031F
:1001C000040707070C0C0C0C0C0C0C0C02020202AE
:1001D00006060606060606060B0B0B0B0B0B0B0B97
:1001E0000102102020080810204010204080020149
:1001F000020108040201010204081020408080402E
:10020000201008040201800402018040201008042C
:1002100002010804020101020408102040800102CA
:1002200004081020408000000A0B02090C0D0E0883
:1002300007030401000000000000000000000000AF
:1002400000000000000000000000000000000000AE
:10025000000012111000000000000000000000006B
:100260000000000000000000000000000D0CBC0CAD
:1002700011241FBECFEFD1E2DEBFCDBF00E00CBF27
:1002800012E0A0E0B2E0EAEEFEE100E00BBF02C047
:1002900007900D92AA3BB107D9F723E0AAEBB2E091
:1002A00001C01D92AB3FB207E1F711E0C7E3D1E017
:1002B00000E006C021970109802FFE010E943C0D3D
:1002C000C633D10780E00807A9F70E9478090C948B
:1002D000630F0C94000096E0899FD0011124A0596F
:1002E000BC4F90967C936E935F9791E091969C9310
:1002F0009197E091DD03F091DE039091DC03992367
:1003000039F0309751F0811108C080918C03199415
:10031000309719F05C968C91FACF0895CF92DF92C6
:10032000EF92FF920F931F9396E0899FF0011124A3
:10033000E059FC4F11A2278D30A12130310551F138
:1003400078F02230310509F451C02330310509F429
:1003500052C01F910F91FF90EF90DF90CF900895C2
:100360006623B9F361E070E00E946B012FB7F89447
:1003700080916C0390916D03A0916E03B0916F0317
:100380002FBF8093C8039093C903A093CA03B0936F
:10039000CB03DFCF9FB7F894C0906C03D0906D0370
:1003A000E0906E03F0906F039FBF0091C80310911F
:1003B000C9032091CA033091CB03C01AD10AE20AC3
:1003C000F30A0091DA031091DB0330E020E00C1512
:1003D0001D052E053F0550F462E070E01F910F915E
:1003E000FF90EF90DF90CF900C946B016111B1CF33
:1003F00063E070E0F3CF70E060E0F0CFAF92BF92C7
:10040000CF92DF92EF92FF920F931F93CF93DF93E0
:100410006C017B018B01040F151FEB015E01AE180F
:10042000BF08C017D10759F06991D601ED91FC9131
:100430000190F081E02DC6011995892B79F7C5014E
:10044000DF91CF911F910F91FF90EF90DF90CF90B0
:10045000BF90AF9008958150823108F05AC0E82FC4
:10046000F0E08827E95CFD4F8F4F0C943C0D57025C
:100470005B0249024F02530289025E026402680273
:100480006E02720276027C028002890284028A0273
:100490008E02809180008F778093800008958091F4
:1004A00080008F7DF9CF80918000877FF5CF84B564
:1004B0008F7784BD089584B58F7DFBCF8091B00088
:1004C0008F778093B00008958091B0008F7DF9CF31
:1004D000809190008F778093900008958091900094
:1004E0008F7DF9CF80919000877FF5CF8091A0001C
:1004F0008F778093A00008958091A0008F7DF9CF21
:100500008091A000877FF5CF809120018F77809325
:1005100020010895809120018F7DF9CF80912001E5
:10052000877FF5CFCF93DF93282F30E0F901EA5D85
:10053000FD4F8491F901E052FE4FD491F901E65646
:10054000FE4FC491CC23A1F081110E942B02EC2F0D
:10055000F0E0EE0FFF1FE058FE4FA591B491EC9133
:10056000ED2381E090E009F480E0DF91CF910895E0
:1005700080E090E0FACF862F0C9492021F93CF93E5
:10058000DF93282F30E0F901EA5DFD4F8491F901F6
:10059000E052FE4FD491F901E656FE4FC491CC23B0
:1005A000A9F0162F81110E942B02EC2FF0E0EE0F24
:1005B000FF1FEA59FE4FA591B4918FB7F894EC91C3
:1005C000111108C0D095DE23DC938FBFDF91CF914E
:1005D0001F910895DE2BF8CF862F642F0C94BE0256
:1005E000CF93DF9390E0FC01E052FE4F24918656BA
:1005F0009E4FFC0184918823C9F090E0880F991FD9
:10060000FC01E45BFE4FA591B491FC01EA59FE4F59
:10061000C591D49161110DC09FB7F8948C9120952C
:1006200082238C938881282328839FBFDF91CF91D9
:100630000895623051F49FB7F8943C91822F8095D1
:1006400083238C93E8812E2BEFCF8FB7F894EC9116
:100650002E2B2C938FBFEACF862F642F0C94F002A1
:100660006F927F928F929F92AF92BF92CF92DF92C2
:10067000EF92FF920F931F93CF93DF9381E08093CC
:10068000DC038FB7F89440916C0350916D03609137
:100690006E0370916F038FBF8091CC039091CD0357
:1006A000A091CE03B091CF03481B590B6A0B7B0B73
:1006B0008091D8039091D903B0E0A0E0841795070A
:1006C000A607B70708F01DC1C0E08091D603C81780
:1006D00060F4E091D203F091D303EC0FF11D62E0DE
:1006E00080810E94F002CF5FF0CF712C812C912C81
:1006F000540183948091D703781608F05FC0072DCA
:1007000010E0E091D403F091D503E00FF11F61E018
:1007100080810E94F002E091D403F091D503E00FB4
:10072000F11F60E080810E94BE02D501C401072C48
:1007300004C0880F991FAA1FBB1F0A94D2F76C012F
:100740007C01E094F094612C8091D6036816F8F453
:10075000C62DD0E0E091D203F091D303EC0FFD1F42
:1007600080810E9492022496CC0FDD1FC059DC4F7D
:10077000892B41F4888199818C299D2999838883CB
:100780006394E2CF888199818E219F21F7CFE091F8
:10079000D403F091D503E00FF11F61E080810E9446
:1007A000BE028091D4039091D503080F191F60E019
:1007B000F80180810E94F00273949CCFC0E7D3E0DF
:1007C000FE018FEF9FEF278D30A1232B21F4148E94
:1007D000968F858F11A2369623E0EC3AF20799F7AF
:1007E000F12C96E0D92E8091D603F81608F050C06F
:1007F000E12C0F2D10E0000F111F08581C4F209105
:10080000D703E21608F042C0F801608171810E2C16
:1008100002C0769567950A94E2F7F29E9001112442
:100820002E0D311DE0E7F3E080E0458D568D241755
:10083000350709F46AC08F5F36968A30B1F760FFDA
:1008400023C0E0E7F3E090E080E0448D411117C061
:10085000E091D003F091D103E20FF31F4081D89EC5
:10086000F001D99EF00D1124E059FC4F448F368FD2
:10087000258F10A2178E61E00E948E0105C001969F
:1008800036968A30910509F7E394B9CFF394ABCF4C
:1008900080E099A19111892F2696F3E0CC3ADF07E9
:1008A000C1F79FB7F89440916C0350916D0360912C
:1008B0006E0370916F039FBF4093CC035093CD03A1
:1008C0006093CE037093CF038823D9F08091910376
:1008D0008823B9F080918F0390919003019789F458
:1008E00080918C03DF91CF911F910F91FF90EF903A
:1008F000DF90CF90BF90AF909F908F907F906F9040
:1009000008951092DC0380E0EDCF6170B5CF1F93A6
:10091000CF93DF93EC01162F8881803308F050C00D
:1009200061E0812F0E94F0028881282F30E0F901D8
:10093000EE0FFF1FE20FF31FEA52FD4F1F7360819E
:10094000607C612B60839EE8998394E69A832CE017
:10095000622F0E94300D829FB001112430E020E010
:10096000AB01420F531FFA01EE0FFF1FE40FF51FFB
:10097000EA52FD4F908196FD16C02F5F3F4F2C30FD
:10098000310571F7813009F51092800082E0809383
:1009900081001092850010928400B19A80916F00BE
:1009A000826080936F00E8818E2F90E0FC01EE0F53
:1009B000FF1FE80FF91FEA52FD4F8081806480839A
:1009C0008881DF91CF911F910895823061F4109258
:1009D000900080939100109295001092940088BB33
:1009E00080937100E0CF833069F41092A00082E020
:1009F0008093A1001092A5001092A40089BB80935F
:100A00007200D1CF8111CFCF1092200182E080936C
:100A1000210110922501109224018ABB809373005A
:100A2000C2CF3FB7F8948091C0029091C102A091CB
:100A3000C202B091C30226B5A89B05C02F3F19F092
:100A40000196A11DB11D3FBFBA2FA92F982F88274E
:100A5000BC01CD01620F711D811D911D42E0660F29
:100A6000771F881F991F4A95D1F708958F929F92FB
:100A7000AF92BF92CF92DF92EF92FF924B015C0157
:100A80000E9411056B017C010E9411056C197D0902
:100A90008E099F09683E734081059105A8F321E006
:100AA000821A9108A108B10888EEC80E83E0D81E0A
:100AB000E11CF11C81149104A104B10429F7FF90F9
:100AC000EF90DF90CF90BF90AF909F908F90089560
:100AD0008F929F92AF92BF92FF920F931F93CF93EB
:100AE000DF93FC01F0808FE28F1508F44AC0828109
:100AF00008E512E0081B110987FD1395000F111F6F
:100B0000000F111F8181C8E8D0E0C81BD10987FD03
:100B1000D395CC0FDD1FCC0FDD1F4E010D2E000C29
:100B2000AA08BB089801012E000C440B550B28198C
:100B300039094A095B09DB010E94F70C24EB30E01C
:100B400040E050E00E94CD0C820E931EA41EB51E04
:100B50008C169D062CF0E801801691060CF4E40139
:100B60002297CC0FDD1F2FB7F8948F2D90E0FC015A
:100B7000EE0FFF1FE80FF91FEA52FD4FD283C1832A
:100B80002FBFDF91CF911F910F91FF90BF90AF903A
:100B90009F908F900895AF92BF92CF92DF92EF9285
:100BA000FF920F931F93CF93DF936B017A01EC01B8
:100BB000C654DD4F28813CE0389F8001399F100DDD
:100BC0001124A090BE02B12C27FF1FC0FB0111828F
:100BD000108288818F5F888388819801280F311D5A
:100BE00087FD3A95F6012A153B051CF488818C3067
:100BF000C4F180819181049680349C4908F473C0CB
:100C0000F60180819181049670C088819801280F37
:100C1000311D87FD3A952A153B05DCF68881A80130
:100C2000480F511D87FD5A95FA01EE0FFF1FE40F83
:100C3000F51FEA52FD4F808186FFCBCF8881F801F6
:100C4000E80FF11D87FDFA95CF01EE0FFF1FE80FAA
:100C5000F91FEA52FD4F808160E08F730E94BE024F
:100C6000B8CF808191812881A801420F511D27FDB5
:100C70005A959A01FA01EE0FFF1FE20FF31FEA5295
:100C8000FD4F21813281820F931FF7019183808371
:100C900088819801280F311D87FD3A95F901EE0FE3
:100CA000FF1FE20FF31FEA52FD4F808186FF22C033
:100CB0008881080F111D87FD1A95F801EE0FFF1F9F
:100CC000E00FF11FEA52FD4F808161E08F73DF91E9
:100CD000CF911F910F91FF90EF90DF90CF90BF9039
:100CE000AF900C94BE0280E49CE9F701918380836D
:100CF0008FEF8883DF91CF911F910F91FF90EF903D
:100D0000DF90CF90BF90AF900895089590E080E07D
:100D10000895FC0101900020E9F73197AF01481BCD
:100D2000590BBC018FED93E00C94FE0120916A03F6
:100D300030916B03232B39F421E0FC01808188235F
:100D400061F020E00AC0BC018091660390916703C6
:100D50000E94530F21E0892BA1F7822F0895CF9392
:100D6000DF93EC0160E08E810E94BE0261E08E8123
:100D70000E94BE0260E08E810E94BE028BE891E07C
:100D80000197F1F7DF91CF910895CF92DF92EF9223
:100D9000FF920F931F93CF93DF936C017C0187E049
:100DA000E80EF11CD0E0C0E0062F10E0B8010C2ED8
:100DB00002C0759567950A94E2F76170F701819119
:100DC0007F010E94BE022196C430D10579F7C60189
:100DD000DF91CF911F910F91FF90EF90DF90CF9017
:100DE0000C94AF06CF92DF92EF92FF920F931F9376
:100DF000CF93DF93EC01F62E642F8C810E94BE020C
:100E00008D818F3F19F060E00E94BE020F2D10E02F
:100E10008F8584FF25C06E0187E0C80ED11CF12CA0
:100E2000E12CB8010E2C02C0759567950A94E2F783
:100E30006170F60181916F010E94BE02FFEFEF1A0F
:100E4000FF0A88E0E816F10461F7CE01DF91CF9147
:100E50001F910F91FF90EF90DF90CF900C94AF0611
:100E6000B80184E0759567958A95E1F7CE010E94F7
:100E7000C5066F2DCE01DF91CF911F910F91FF908D
:100E8000EF90DF90CF900C94C50640E0682F8FED77
:100E900093E00C94F20681E00E9445078BE39FE10A
:100EA0000197F1F70895CF93DF93823029F4909161
:100EB000EE0398609093EE038093F2031092F30395
:100EC00080E48093F40380E18093F50380E58093D0
:100ED000F60361E08091E3030E94F0028091E40355
:100EE0008F3F19F061E00E94F00261E08091E5031C
:100EF0000E94F002CFEDD3E09E012F5D3340809140
:100F0000EE0384FD0BC084E090E02196281739079A
:100F100044F461E08E810E94F002EECF88E090E020
:100F2000F4CF8BE39DE00197F1F760E08091E3035C
:100F30000E94BE0260E08091E5030E94BE028091A3
:100F4000E4038F3F19F060E00E94BE028091EE033F
:100F500084FD34C063E08FED93E00E94C506CBE4CE
:100F6000D6E4CE010197F1F763E08FED93E00E94A4
:100F7000C5062197F1F763E08FED93E00E94C50667
:100F800083E592E00197F1F762E08FED93E00E9434
:100F9000C5068091EE0380620E94450784E080933D
:100FA000EF038CE00E9445070E944B0782E080938C
:100FB000F00386E0DF91CF910C94450780620E9498
:100FC00045078BE496E40197F1F78091EE03806288
:100FD0000E94450783E592E00197F1F78091EE03C7
:100FE00080620E944507D5CF9091F203891710F0D7
:100FF0008FEF890FE82FF0E0E152FC4F8489806881
:101000000C94450741E00E94F20681E090E00895CB
:101010000F931F93CF93DF93EC0188819981009701
:1010200059F02A813B812617370730F081E0DF91A4
:10103000CF911F910F9108958B016F5F7F4F0E9499
:10104000690E009759F0998388831B830A832C814A
:101050003D81232B59F7FC011082E8CF80E0E7CFD8
:10106000EF92FF920F931F93CF93DF93EC017B01DD
:101070008A01BA010E94080828813981811114C0AF
:101080002115310519F0C9010E94E00D198218825D
:101090001D821C821B821A82CE01DF91CF911F918B
:1010A0000F91FF90EF9008951D830C83B701C90144
:1010B0000E945C0FF1CF1F920F920FB60F92112476
:1010C0002F933F938F939F93AF93BF9380916C0324
:1010D00090916D03A0916E03B0916F033091BF02A8
:1010E00023E0230F2D3758F50196A11DB11D209344
:1010F000BF0280936C0390936D03A0936E03B09333
:101100006F038091C0029091C102A091C202B09180
:10111000C3020196A11DB11D8093C0029093C1022C
:10112000A093C202B093C302BF91AF919F918F91E0
:101130003F912F910F900FBE0F901F90189526E8AA
:10114000230F0296A11DB11DD2CF1F920F920FB691
:101150000F9211240BB60F922F933F934F935F93EF
:101160006F937F938F939F93AF93BF93EF93FF936F
:1011700048E251E064E271E090E080E00E94CB053B
:10118000FF91EF91BF91AF919F918F917F916F915F
:101190005F914F913F912F910F900BBE0F900FBE1B
:1011A0000F901F9018951F920F920FB60F92112457
:1011B0000BB60F922F933F934F935F936F937F9351
:1011C0008F939F93AF93BF93EF93FF9348EA50E0C1
:1011D00064EA70E083E090E00E94CB05FF91EF911C
:1011E000BF91AF919F918F917F916F915F914F913F
:1011F0003F912F910F900BBE0F900FBE0F901F903D
:1012000018951F920F920FB60F9211240BB60F92E2
:101210002F933F934F935F936F937F938F939F93FE
:10122000AF93BF93EF93FF9348E950E064E970E018
:1012300082E090E00E94CB05FF91EF91BF91AF91CA
:101240009F918F917F916F915F914F913F912F91DE
:101250000F900BBE0F900FBE0F901F9018951F920E
:101260000F920FB60F9211240BB60F922F933F934C
:101270004F935F936F937F938F939F93AF93BF939E
:10128000EF93FF9348E850E064E870E081E090E07D
:101290000E94CB05FF91EF91BF91AF919F918F91EC
:1012A0007F916F915F914F913F912F910F900BBE66
:1012B0000F900FBE0F901F901895FC019091BE02E9
:1012C000903398F481E0890F8093BE029083892F38
:1012D00090E0FC01EE0FFF1FE80FF91FEA52FD4FEF
:1012E00088EB9BE09283818308958FEF808308953C
:1012F000CF93DF931F921F92CDB7DEB7789484B55A
:10130000826084BD84B5816084BD85B5826085BD01
:1013100085B5816085BD80916E00816080936E008F
:101320001092810080918100826080938100809181
:101330008100816080938100809180008160809332
:1013400080008091B10084608093B1008091B000F2
:1013500081608093B00080919100826080939100C1
:1013600080919100816080939100809190008160D4
:10137000809390008091A10082608093A100809171
:10138000A10081608093A1008091A0008160809382
:10139000A000809121018260809321018091210130
:1013A00081608093210180912001816080932001E0
:1013B00080917A00846080937A0080917A008260C4
:1013C00080937A0080917A00816080937A00809186
:1013D0007A00806880937A001092C10082E00E94B7
:1013E00053070E944B0780E00E94F4076DE070E015
:1013F0008DEC92E00E94870461E084E30E94F00299
:1014000061E085E30E94F00261E084E30E94BE0295
:1014100060E085E30E94BE026CE070E08AEC92E03E
:101420000E94870461E082E30E94F00261E083E3AE
:101430000E94F00261E082E30E94BE0260E083E36A
:101440000E94BE026BE070E087EC92E00E9487048D
:1014500061E080E30E94F00261E081E30E94F0021B
:1014600061E080E30E94BE0260E081E30E94BE0270
:101470006AE070E084EC92E00E94870461E08EE212
:101480000E94F00261E08FE20E94F00261E08EE2D1
:101490000E94BE0260E08FE20E94BE0280E0E82E61
:1014A00080E0F82E0E943003182F8823D9F383326E
:1014B00009F0D5C020916A0330916B038091D4026A
:1014C0009091D50228173907C1F480916603909155
:1014D00067036091D0027091D102009709F4F4C0C3
:1014E0006115710539F4232B09F4FCC0FC018081DE
:1014F00090E0F5C00E94530FF2C081E592E00E9497
:101500009606882321F10E944B0780E00E94F40791
:1015100084E592E00E94890661E084E30E94BE02B5
:1015200060E085E30E94BE0264EB70E08DEC92E027
:101530000E9468056CED75E080E090E00E94360541
:101540006AE570E08DEC92E00E94680552C185E684
:1015500092E00E949606882311F10E944B0780E0DA
:101560000E94F40788E692E00E94890661E082E327
:101570000E94BE0260E083E30E94BE0264EB70E062
:101580008AEC92E00E9468056CED75E080E090E0E6
:101590000E9436056AE570E08AEC92E0D5CF89E7D3
:1015A00092E00E949606882311F10E944B0780E08A
:1015B0000E94F4078CE792E00E94890661E080E3D4
:1015C0000E94BE0260E081E30E94BE0264EB70E014
:1015D00087EC92E00E9468056CED75E080E090E099
:1015E0000E9436056AE570E087EC92E0ADCF8DE8A9
:1015F00092E00E949606882311F10E944B0780E03A
:101600000E94F40780E992E00E94890661E08EE280
:101610000E94BE0260E08FE20E94BE0264EB70E0B6
:1016200084EC92E00E9468056CED75E080E090E04B
:101630000E9436056AE570E084EC92E085CF0E9456
:101640004B0780E00E94F40781EA92E00E9489063D
:101650006CED75E080E090E00E943605CAC08A32E9
:1016600049F450E040E060E472E086E693E00E94D6
:101670003008CAC089831A82C0906A03D0906B0375
:10168000FFEFCF1ADF0AB60186E693E00E94080852
:10169000882399F0209166033091670380916A0353
:1016A00090916B03BE016F5F7F4F820F931F0E946B
:1016B0005C0FD0926B03C0926A0341E0612F8FED03
:1016C00093E00E94F206A2C06115710559F0232B28
:1016D00049F0FB01808190E0919581959109892BDA
:1016E00009F00BCF80E00E94F4070E944B078FE2C5
:1016F00092E00E94890681E00E94F40781E492E072
:101700000E94890680E00E94F40760E084E30E9462
:10171000BE0260E085E30E94BE0270E060E08DECF6
:1017200092E00E94680564EF71E080E090E00E9422
:10173000360560E082E30E94BE0260E083E30E941F
:10174000BE0270E060E08AEC92E00E94680564EFFF
:1017500071E080E090E00E94360560E080E30E9446
:10176000BE0260E081E30E94BE0270E060E087ECB0
:1017700092E00E94680564EF71E080E090E00E94D2
:10178000360560E08EE20E94BE0260E08FE20E94B9
:10179000BE0270E060E084EC92E00E94680564EFB5
:1017A00071E080E090E00E9436050E9430038823BB
:1017B000E1F360E084E30E94BE0261E085E30E9401
:1017C000BE0260E082E30E94BE0261E083E30E9409
:1017D000BE0260E080E30E94BE0261E081E30E94FD
:1017E000BE0260E08EE20E94BE0261E08FE20E94D3
:1017F000BE0250E040E060E472E086E693E00E94C2
:10180000300880E00E94F4070E944B07E114F104C5
:1018100009F448CE0E94000045CE1092D1021092E9
:10182000D0021092D3021092D2021092D5021092DE
:10183000D40247E050E061EB72E080ED92E00E945C
:101840003008109267031092660310926903109299
:10185000680310926B0310926A0350E040E060E46A
:1018600072E086E693E00E9430081092E203109244
:10187000E10387E292E09093E0038093DF0387E047
:101880008093E3038FEF8093E40386E08093E50386
:1018900085E08093E60384E08093E70383E0809310
:1018A000E80382E08093E9031092EA031092EB03CD
:1018B0001092EC031092ED031092EE0381E00E946F
:1018C00053071092720310927603109275031092D0
:1018D00077038DE192E09093710380937003ECE8BD
:1018E000F3E01082148213821582369683E0E83C7E
:1018F000F807B9F783E092E09093D3038093D20383
:1019000080E092E09093D5038093D40384E08093A9
:10191000D60383E08093D70387E092E09093D103CE
:101920008093D0038AE090E09093D9038093D8030A
:1019300084EF91E09093DB038093DA031092DE034F
:101940001092DD031092CC031092CD031092CE03BF
:101950001092CF031092DC038DEC92E00E945D099F
:101960008AEC92E00E945D0987EC92E00E945D099A
:1019700084EC92E00C945D0980916603909167037A
:10198000009711F00E94E00D8091D0029091D10259
:10199000009711F00C94E00D0895052E97FB1EF4AE
:1019A00000940E94E40C57FD07D00E94FF0C07FC36
:1019B00003D04EF40C94E40C50954095309521954D
:1019C0003F4F4F4F5F4F089590958095709561956B
:1019D0007F4F8F4F9F4F08950E94210DA59F900D1F
:1019E000B49F900DA49F800D911D11240895B7FF01
:1019F0000C94EC0C0E94EC0C821B930B0895A1E25A
:101A00001A2EAA1BBB1BFD010DC0AA1FBB1FEE1F78
:101A1000FF1FA217B307E407F50720F0A21BB30BC3
:101A2000E40BF50B661F771F881F991F1A9469F73F
:101A300060957095809590959B01AC01BD01CF019B
:101A40000895A29FB001B39FC001A39F700D811D97
:101A50001124911DB29F700D811D1124911D0895B7
:101A6000991B79E004C0991F961708F0961B881FF0
:101A70007A95C9F780950895EE0FFF1F881F8BBFD9
:101A80000790F691E02D19940F931F93CF93DF9356
:101A90008230910510F482E090E0E091F903F0913A
:101AA000FA0330E020E0B0E0A0E0309799F421158F
:101AB000310509F44AC0281B390B24303105D8F50B
:101AC0008A819B816115710589F1FB019383828372
:101AD000FE0111C0408151810281138148175907CD
:101AE000E0F04817590799F4109761F012960C939B
:101AF000129713961C933296CF01DF91CF911F91CD
:101B00000F9108950093F9031093FA03F4CF211570
:101B1000310551F04217530738F0A901DB019A0152
:101B2000BD01DF01F801C1CFEF01F9CF9093FA03B6
:101B30008093F903CDCFFE01E20FF31F81939193C0
:101B40002250310939832883D7CF2091F703309170
:101B5000F803232B41F420911502309116023093A3
:101B6000F8032093F70320911302309114022115FA
:101B7000310541F42DB73EB740911702509118023C
:101B8000241B350BE091F703F091F803E217F307FC
:101B9000A0F42E1B3F0B2817390778F0AC014E5FDD
:101BA0005F4F2417350748F04E0F5F1F5093F8031F
:101BB0004093F703819391939FCFF0E0E0E09CCFB7
:101BC000CF93DF930097E9F0FC01329713821282E2
:101BD000A091F903B091FA03ED0130E020E01097F5
:101BE000A1F420813181820F931F2091F70330915E
:101BF000F8032817390709F061C0F093F803E09360
:101C0000F703DF91CF910895EA01CE17DF07E8F5DA
:101C10004A815B819E0141155105B1F7E901FB83C2
:101C2000EA8349915991C40FD51FEC17FD0761F460
:101C3000808191810296840F951FE90199838883A1
:101C4000828193819B838A83F0E0E0E012968D91FC
:101C50009C9113970097B9F52D913C911197CD0167
:101C60000296820F931F2091F7033091F8032817F3
:101C7000390739F6309751F51092FA031092F903AB
:101C8000B093F803A093F703BCCFD383C283408102
:101C90005181840F951FC817D90761F44E5F5F4FBC
:101CA00088819981480F591F518340838A819B8184
:101CB000938382832115310509F0B0CFF093FA03A5
:101CC000E093F9039ECFFD01DC01C0CF13821282A5
:101CD000D7CF4F925F926F927F928F929F92AF92E7
:101CE000BF92CF92DF92EF92FF920F931F93CF9309
:101CF000DF938C01009799F4CB01DF91CF911F9175
:101D00000F91FF90EF90DF90CF90BF90AF909F909A
:101D10008F907F906F905F904F900C94440DFC01DA
:101D2000E60FF71F9C0122503109E217F30708F470
:101D3000AEC0D901CD91DC911197C617D70720F11C
:101D4000C530D10578F0CE0104978617970750F07B
:101D5000C61BD70B2297C193D1936D937C93CF0170
:101D60000E94E00DC801DF91CF911F910F91FF906C
:101D7000EF90DF90CF90BF90AF909F908F907F902B
:101D80006F905F904F9008955B01AC1ABD0A4C01B3
:101D90008C0E9D1EA091F903B091FA03512C412C99
:101DA000F12CE12C109731F58091F7039091F80315
:101DB0008815990509F05CC04616570608F058C00A
:101DC0008091130290911402009741F48DB79EB751
:101DD0004091170250911802841B950BE817F907E0
:101DE00008F055C0F093F803E093F703F90171830D
:101DF0006083B8CF8D919C91119712966C90129739
:101E000013967C901397A815B90559F56C0142E01B
:101E1000C40ED11CCA14DB0420F1AC014A195B09C1
:101E2000DA011296159780F06282738251834083A3
:101E3000D9016D937C93E114F10471F0D7011396ED
:101E4000FC93EE9312978ECF22968C0F9D1FF90173
:101E500091838083F301EFCFF093FA03E093F903CA
:101E600081CF4816590608F42C017D01D3019ACF81
:101E7000CB010E94440D7C01009749F0AE01B801EE
:101E80000E944A0FC8010E94E00D87016BCF10E04D
:101E900000E068CFFB01DC0102C001900D924150CF
:101EA0005040D8F70895FB01DC018D910190801915
:101EB0000110D9F3990B0895FB01DC0101900D92FB
:101EC0000020E1F7089511E0C7E3D1E000E006C08B
:101ED000802FFE010E943C0D2196011DC833D107C1
:0A1EE00080E00807A9F7F894FFCF8F
:101EEA00161718191A1B1C3132333435363738395C
:101EFA002A30230000FB038000000000002C03ECC2
:101F0A0002BB02000000000208FE018606850643A5
:101F1A006F72726563742050617373636F646521B5
:101F2A0000416E79204B657920746F204261636BA2
:101F3A00003131004974656D2031312053656C657B
:101F4A0063746564003132004974656D2031322052
:101F5A0053656C6563746564003231004974656D5C
:101F6A002032312053656C65637465640032320037
:101F7A004974656D2032322053656C6563746564FB
:101F8A0000496E76616C6964204F7074696F6E21C6
:0A1F9A0000313233343536370000D1
:00000001FF
