:100000000C9422010C9453010C9453010C94530151
:100010000C9453010C9453010C9453010C94530110
:100020000C9453010C9453010C9453010C94530100
:100030000C9453010C9453010C9453010C945301F0
:100040000C9453010C9453010C9453010C945301E0
:100050000C9453010C9453010C9453010C94DB0346
:100060000C9453010C9453010C9453010C945301C0
:100070000C9453010C9453010C9453010C945301B0
:100080000C9453010C9453010C9453010C945301A0
:100090000C9453010C9453010C9453010C94530190
:1000A0000C9453010C9453010C9453010C94530180
:1000B0000C9453010C9453010C9453010C94530170
:1000C0000C9453010C9453010C9453010C94530160
:1000D0000C9453010C9453010C9453010C94530150
:1000E0000C9453010C940F020C94F6040C94FF0131
:1000F0000C9490020C94D9010C94F4010C9413020A
:100100000C94FC010C94F8010C942B020C94F0015B
:100110000C9409020C9405020C941D020C94DE014F
:100120000C9421020C942F020C9425020C9474015F
:100130000C9491020C9417020C94D50300000A0B46
:1001400002090C0D0E080703040100000000000066
:10015000000000000000000000000000000000009F
:10016000000000000000000012111000000000005C
:10017000000000000000000000000000000000007F
:10018000000000002200250028002B002E00310076
:10019000340002010000050108010B0100002100EC
:1001A000240027002A002D00300033000101000048
:1001B000040107010A0105050505070508080808E7
:1001C000020202020A0A08080404040401010101EF
:1001D00001010101030303030303030304070707EA
:1001E0000C0C0C0C0C0C0C0C02020202060606068F
:1001F000060606060B0B0B0B0B0B0B0B010210205C
:10020000200808102040102040800201020108044C
:1002100002010102040810204080804020100804E0
:100220000201800402018040201008040201080439
:10023000020101020408102040800102040810207D
:100240004080F60411241FBECFEFD1E2DEBFCDBF48
:1002500000E00CBF12E0A0E0B2E0ECE8FAE000E061
:100260000BBF02C007900D92AA31B107D9F722E067
:10027000AAE1B2E001C01D92AF33B207E1F711E08D
:10028000C2E2D1E000E006C021970109802FFE0103
:100290000E942805C132D10780E00807A9F70E9413
:1002A00025040C9444050C94000090E0FC01E450FB
:1002B000FE4F24918A549E4FFC018491882399F02B
:1002C00090E0880F991FFC01E456FE4FA591B49170
:1002D000FC01EE57FE4F859194918FB7F894EC9105
:1002E000E22BEC938FBF0895AF92BF92CF92DF9233
:1002F000EF92FF920F931F93CF93DF936C017B01DB
:100300008B01040F151FEB015E01AE18BF08C0176B
:10031000D10759F06991D601ED91FC910190F081DE
:10032000E02DC6011995892B79F7C501DF91CF9191
:100330001F910F91FF90EF90DF90CF90BF90AF9003
:1003400008954CE050E06CE072E087E292E00C949B
:100350007401282F30E0F901E45CFE4F9491F9011B
:10036000E450FE4F44912A543E4FF9012491222338
:1003700009F435C0992311F191509231F8F4E92F25
:10038000F0E08827E953FE4F8F4F0C942805F801C1
:10039000FC01D901F001F401DE01FF0105020902AF
:1003A0000F02130217021D022102DE0125022B0299
:1003B0002F02809180008F7780938000E22FF0E001
:1003C000EE0FFF1FEE57FE4FA591B4918FB7F89433
:1003D000EC91611148C040954E234C938FBF089516
:1003E000809180008F7DE8CF80918000877FE4CF6F
:1003F00084B58F7784BDE2CF84B58F7DFBCF8091AC
:10040000B0008F778093B000D9CF8091B0008F7DFE
:10041000F9CF809190008F7780939000CFCF80911B
:1004200090008F7DF9CF80919000877FF5CF8091EC
:10043000A0008F778093A000C1CF8091A0008F7D16
:10044000F9CF8091A000877FF5CF809120018F7731
:1004500080932001B3CF809120018F7DF9CF8091CF
:100460002001877FF5CF4E2BB8CF3FB7F89480910E
:100470001F0290912002A0912102B091220226B584
:10048000A89B05C02F3F19F00196A11DB11D3FBFCC
:10049000BA2FA92F982F8827BC01CD01620F711D9B
:1004A000811D911D42E0660F771F881F991F4A9595
:1004B000D1F708958F929F92AF92BF92CF92DF9221
:1004C000EF92FF920E9435024B015C0188EEC82E2C
:1004D00083E0D82EE12CF12C0E94350268197909AD
:1004E0008A099B09683E734081059105A8F321E0C4
:1004F000C21AD108E108F10888EE880E83E0981E40
:10050000A11CB11CC114D104E104F10429F7FF902E
:10051000EF90DF90CF90BF90AF909F908F90089515
:10052000089590E080E00895CF93DF93EC0160E0C0
:100530008E810E94A90161E08E810E94A90160E084
:100540008E810E94A9018BE891E00197F1F7DF917C
:10055000CF910895CF92DF92EF92FF920F931F9366
:10056000CF93DF936C017C0187E0E80EF11CD0E0B3
:10057000C0E0062F10E0B8010C2E02C075956795FB
:100580000A94E2F76170F70181917F010E94A9014D
:100590002196C430D10579F7C601DF91CF911F9123
:1005A0000F91FF90EF90DF90CF900C949402CF9238
:1005B000DF92EF92FF920F931F93CF93DF93EC01A3
:1005C000F62E642F8C810E94A9018D818F3F19F036
:1005D00060E00E94A9010F2D10E08F8584FF25C0E7
:1005E0006E0187E0C80ED11CF12CE12CB8010E2C55
:1005F00002C0759567950A94E2F76170F6018191E2
:100600006F010E94A901FFEFEF1AFF0A88E0E816C8
:10061000F10461F7CE01DF91CF911F910F91FF900F
:10062000EF90DF90CF900C949402B80184E0759520
:1006300067958A95E1F7CE010E94AA026F2DCE013F
:10064000DF91CF911F910F91FF90EF90DF90CF90AE
:100650000C94AA0240E0682F87E292E00C94D70243
:1006600081E00E942A038BE39FE10197F1F708954F
:10067000CF93DF93823029F4909136029860909363
:10068000360280933A0210923B0280E480933C024F
:1006900080E180933D0280E580933E0280912B02B1
:1006A0000E94550180912C028F3F11F00E9455014C
:1006B00080912D020E945501C7E2D2E09E0127528F
:1006C00032408091360284FD0AC084E090E0219699
:1006D000281739073CF48E810E945501EFCF88E03E
:1006E00090E0F5CF8BE39DE00197F1F760E080911A
:1006F0002B020E94A90160E080912D020E94A901B5
:1007000080912C028F3F19F060E00E94A901809136
:10071000360284FD34C063E087E292E00E94AA02C0
:10072000CBE4D6E4CE010197F1F763E087E292E0F3
:100730000E94AA022197F1F763E087E292E00E940B
:10074000AA0283E592E00197F1F762E087E292E086
:100750000E94AA028091360280620E942A0384E0ED
:10076000809337028CE00E942A030E94300382E0CB
:100770008093380286E0DF91CF910C942A03806247
:100780000E942A038BE496E40197F1F780913602E8
:1007900080620E942A0383E592E00197F1F780913D
:1007A000360280620E942A03D5CF41E00E94D70220
:1007B00081E090E008951F920F920FB60F921124DE
:1007C0002F933F938F939F93AF93BF9380911B027F
:1007D00090911C02A0911D02B0911E0230911A024C
:1007E00023E0230F2D3758F50196A11DB11D20934D
:1007F0001A0280931B0290931C02A0931D02B093D7
:100800001E0280911F0290912002A0912102B091BE
:1008100022020196A11DB11D80931F029093200218
:10082000A0932102B0932202BF91AF919F918F912B
:100830003F912F910F900FBE0F901F90189526E8B3
:10084000230F0296A11DB11DD2CF789484B582608A
:1008500084BD84B5816084BD85B5826085BD85B564
:10086000816085BD80916E00816080936E001092E2
:10087000810080918100826080938100809181005D
:1008800081608093810080918000816080938000EE
:100890008091B10084608093B1008091B00081604C
:1008A0008093B0008091910082608093910080914C
:1008B000910081608093910080919000816080938D
:1008C00090008091A10082608093A1008091A1009E
:1008D00081608093A1008091A00081608093A0003E
:1008E00080912101826080932101809121018160AA
:1008F000809321018091200181608093200180916B
:100900007A00846080937A0080917A00826080937C
:100910007A0080917A00816080937A0080917A00D9
:10092000806880937A001092C10082E00E943803B0
:100930000E94300380912502E0912302E43008F008
:10094000E3E090913A02E91710F0EFEFE90FF0E0E1
:10095000E95DFD4F9489890F80680E942A030E94F7
:10096000A1010E945A0202E010E0C0E0D0E08CE158
:100970000E942A03809125029091260201968530DB
:10098000910559F090932602809325020E945A0205
:10099000209769F30E940000EACF1092260210927D
:1009A0002502E0902302F09024028FEFE81AF80A63
:1009B000F0922402E09223020E943003C701B801A2
:1009C0000E941405843008F083E090913A02891760
:1009D00010F08FEF890FE82FF0E0E95DFD4F84897B
:1009E00080680E942A030E94A101D0CFE7E2F2E0D2
:1009F0001382128284E092E0918380838DE084836D
:100A00008FEF85838CE086838BE087838AE0808705
:100A100089E0818788E0828713861486158616868A
:100A2000178681E00C94380397FB072E16F4009488
:100A300007D077FD09D00E94300507FC05D03EF4B1
:100A4000909581959F4F0895709561957F4F08957A
:100A5000EE0FFF1F881F8BBF0790F691E02D1994B2
:100A6000AA1BBB1B51E107C0AA1FBB1FA617B707D4
:100A700010F0A61BB70B881F991F5A95A9F78095F0
:0C0A80009095BC01CD010895F894FFCFC3
:100A8C0000000000D50374019102900244616E696C
:0A0A9C00616C2048616D6469000080
:00000001FF
