:100000000C9438010C9469010C9469010C946901F9
:100010000C9469010C9469010C9469010C946901B8
:100020000C9469010C9469010C9469010C946901A8
:100030000C9469010C9469010C9469010C94690198
:100040000C9469010C94F1070C9469010C946901FA
:100050000C9469010C9469010C9469010C941D07BE
:100060000C9469010C9469010C9469010C94690168
:100070000C9469010C9469010C9469010C94690158
:100080000C94C3070C9469010C9469010C946901E8
:100090000C9469010C9469010C9469010C94690138
:1000A0000C9469010C9469010C9495070C946901F6
:1000B0000C9469010C9469010C9469010C94670714
:1000C0000C9469010C9469010C9469010C94690108
:1000D0000C9469010C9469010C9469010C946901F8
:1000E0000C9469010C9462020C9487020C945C02DB
:1000F0000C9455020C9451020C943B0D0C94740218
:100100000C948C020C9466020C94A8040C94470284
:100110000C944D020C947A020C946C020C945902CB
:100120000C942A030C94F3010C9440060C94EA02FC
:100130000C9482020C94B9020C947E020C948802F6
:100140000C949F0C0C94A7040C94700200002100E6
:10015000240027002A002D00300033000101000098
:10016000040107010A0100002200250028002B00DD
:100170002E003100340002010000050108010B01CE
:10018000000020002300260029002C002F00320050
:100190000001000003010601090105050505070529
:1001A00008080808020202020A0A080804040404F3
:1001B000010101010101010103030303030303031F
:1001C000040707070C0C0C0C0C0C0C0C02020202AE
:1001D00006060606060606060B0B0B0B0B0B0B0B97
:1001E0000102102020080810204010204080020149
:1001F000020108040201010204081020408080402E
:10020000201008040201800402018040201008042C
:1002100002010804020101020408102040800102CA
:1002200004081020408000000A0B02090C0D0E0883
:1002300007030401000000000000000000000000AF
:1002400000000000000000000000000000000000AE
:10025000000012111000000000000000000000006B
:100260000000000000000000000000009F0C3B0D9B
:1002700011241FBECFEFD1E2DEBFCDBF00E00CBF27
:1002800012E0A0E0B2E0E0EDF0E200E00BBF02C05F
:1002900007900D92AC3EB107D9F724E0ACEEB2E086
:1002A00001C01D92AA32B207E1F711E0C7E3D1E025
:1002B00000E006C021970109802FFE010E942F0E49
:1002C000C633D10780E00807A9F70E941F080C94E5
:1002D00056100C9400008F929F92AF92BF92FF92A3
:1002E0000F931F93CF93DF93F0900B042FE22F1502
:1002F00008F44CC020910D0408E512E0021B11091E
:1003000027FD1395000F111F000F111F20910C04E2
:10031000C8E8D0E0C21BD10927FDD395CC0FDD1F63
:10032000CC0FDD1F4E010D2E000CAA08BB08980152
:10033000012E000C440B550B281939094A095B0999
:10034000DC010E94EA0D24EB30E040E050E00E9426
:10035000C00D820E931EA41EB51E8C169D062CF099
:10036000E801801691060CF4E4012297CC0FDD1F02
:100370002FB7F8948F2D90E0FC01EE0FFF1FE80FD0
:10038000F91FE558FC4FD283C1832FBFDF91CF9176
:100390001F910F91FF90BF90AF909F908F90089505
:1003A00096E0899FD0011124A45FBC4F90967C9366
:1003B0006E935F9791E091969C939197E09179036A
:1003C000F0917A0390917803992339F0309751F0A6
:1003D000811108C0809128031994309719F05C9618
:1003E0008C91FACF0895AF92BF92CF92DF92EF92A5
:1003F000FF920F931F93CF93DF936C017B018B01CF
:10040000040F151FEB015E01AE18BF08C017D1071E
:1004100059F06991D601ED91FC910190F081E02DA8
:10042000C6011995892B79F7C501DF91CF911F91ED
:100430000F91FF90EF90DF90CF90BF90AF90089515
:10044000FC0144815581608171818EE094E00C94BF
:10045000F3018150823108F05AC0E82FF0E088277C
:10046000EB5CFD4F8F4F0C942F0E55025902470243
:100470004D02510287025C02620266026C02700247
:1004800074027A027E028702820288028C028091C4
:1004900080008F77809380000895809180008F7D09
:1004A000F9CF80918000877FF5CF84B58F7784BDA9
:1004B000089584B58F7DFBCF8091B0008F778093B6
:1004C000B00008958091B0008F7DF9CF80919000A9
:1004D0008F77809390000895809190008F7DF9CF61
:1004E00080919000877FF5CF8091A0008F778093D7
:1004F000A00008958091A0008F7DF9CF8091A00089
:10050000877FF5CF809120018F7780932001089518
:10051000809120018F7DF9CF80912001877FF5CFD9
:10052000CF93DF93282F30E0F901EA5DFD4F8491EE
:10053000F901E052FE4FD491F901E656FE4FC49105
:10054000CC23A1F081110E942902EC2FF0E0EE0FE4
:10055000FF1FE058FE4FA591B491EC91ED2381E08F
:1005600090E009F480E0DF91CF91089580E090E081
:10057000FACF862F0C9490021F93CF93DF93282FEE
:1005800030E0F901EA5DFD4F8491F901E052FE4F40
:10059000D491F901E656FE4FC491CC23A9F0162F51
:1005A00081110E942902EC2FF0E0EE0FFF1FEA59A3
:1005B000FE4FA591B4918FB7F894EC91111108C03A
:1005C000D095DE23DC938FBFDF91CF911F910895EB
:1005D000DE2BF8CF862F642F0C94BC02CF93DF93D1
:1005E00090E0FC01E052FE4F249186569E4FFC01A4
:1005F00084918823C9F090E0880F991FFC01E45B87
:10060000FE4FA591B491FC01EA59FE4FC591D491DA
:1006100061110DC09FB7F8948C91209582238C9323
:100620008881282328839FBFDF91CF91089562306E
:1006300051F49FB7F8943C91822F809583238C933B
:10064000E8812E2BEFCF8FB7F894EC912E2B2C93C3
:100650008FBFEACF862F642F0C94EE023FB7F89439
:100660008091F6029091F702A091F802B091F90200
:1006700026B5A89B05C02F3F19F00196A11DB11DFD
:100680003FBFBA2FA92F982F8827BC01CD01620F39
:10069000711D811D911D42E0660F771F881F991FF4
:1006A0004A95D1F708958F929F92AF92BF92CF92C1
:1006B000DF92EF92FF924B015C010E942E036B01CF
:1006C0007C010E942E036C197D098E099F09683EEA
:1006D000734081059105A8F321E0821A9108A108D1
:1006E000B10888EEC80E83E0D81EE11CF11C81140D
:1006F0009104A104B10429F7FF90EF90DF90CF900F
:10070000BF90AF909F908F9008952FB7F89460910D
:10071000F2027091F3028091F4029091F5022FBFE2
:1007200008950F931F93CF93DF93C82FD62F86E0A2
:10073000C89FF0011124E45FFC4F11A2878D90A1A6
:1007400081309105F1F058F082309105F1F1039775
:1007500009F440C0DF91CF911F910F910895662356
:10076000C9F361E070E08C2F0E94D0010E948503E4
:1007700060936403709365038093660390936703AB
:10078000E9CF0E94850300916403109165032091D5
:10079000660330916703AB01BC01401B510B620B38
:1007A000730B8091760390917703B0E0A0E08417FB
:1007B0009507A607B70748F462E070E08C2FDF9139
:1007C000CF911F910F910C94D00163E070E0D11193
:1007D000C1CFF4CF70E060E0F1CFAF92BF92CF9283
:1007E000DF92EF92FF920F931F93CF93DF936B01F2
:1007F0007A01EC01C351DD4F28813CE0389F800134
:10080000399F100D1124A090EC02B12C27FF1FC0BE
:10081000FB011182108288818F5F88838881980113
:10082000280F311D87FD3A95F6012A153B051CF46A
:1008300088818C30C4F180819181049680349C49F8
:1008400008F473C0F60180819181049670C088819C
:100850009801280F311D87FD3A952A153B05DCF6D6
:100860008881A801480F511D87FD5A95FA01EE0FA6
:10087000FF1FE40FF51FE558FC4F808186FFCBCFAB
:100880008881F801E80FF11D87FDFA95CF01EE0F81
:10089000FF1FE80FF91FE558FC4F808160E08F7360
:1008A0000E94BC02B8CF808191812881A801420FAB
:1008B000511D27FD5A959A01FA01EE0FFF1FE20F15
:1008C000F31FE558FC4F21813281820F931FF701FE
:1008D0009183808388819801280F311D87FD3A9587
:1008E000F901EE0FFF1FE20FF31FE558FC4F808167
:1008F00086FF22C08881080F111D87FD1A95F80117
:10090000EE0FFF1FE00FF11FE558FC4F808161E003
:100910008F73DF91CF911F910F91FF90EF90DF9038
:10092000CF90BF90AF900C94BC0280E49CE9F7019B
:10093000918380838FEF8883DF91CF911F910F91F7
:10094000FF90EF90DF90CF90BF90AF900895089503
:1009500090E080E00895FC0101900020E9F73197D4
:10096000AF01481B590BBC018EE094E00C94F301DD
:10097000CF93DF93EC0160E08E810E94BC0261E0C6
:100980008E810E94BC0260E08E810E94BC028BE8D6
:1009900091E00197F1F7DF91CF910895CF92DF9227
:1009A000EF92FF920F931F93CF93DF936C017C0123
:1009B00087E0E80EF11CD0E0C0E0062F10E0B8019F
:1009C0000C2E02C0759567950A94E2F76170F701E5
:1009D00081917F010E94BC022196C430D10579F734
:1009E000C601DF91CF911F910F91FF90EF90DF90A3
:1009F000CF900C94B804CF92DF92EF92FF920F93B6
:100A00001F93CF93DF93EC01F62E642F8C810E940D
:100A1000BC028D818F3F19F060E00E94BC020F2D57
:100A200010E08F8584FF25C06E0187E0C80ED11CC1
:100A3000F12CE12CB8010E2C02C0759567950A9433
:100A4000E2F76170F60181916F010E94BC02FFEF35
:100A5000EF1AFF0A88E0E816F10461F7CE01DF9192
:100A6000CF911F910F91FF90EF90DF90CF900C945A
:100A7000B804B80184E0759567958A95E1F7CE01D1
:100A80000E94CE046F2DCE01DF91CF911F910F9167
:100A9000FF90EF90DF90CF900C94CE0440E0682F51
:100AA0008EE094E00C94FB0481E00E944E058BE301
:100AB0009FE10197F1F70895CF93DF93823029F4F6
:100AC00090911D04986090931D04809321041092CE
:100AD000220480E48093230480E18093240480E551
:100AE0008093250461E0809112040E94EE028091BF
:100AF00013048F3F19F061E00E94EE0261E08091E3
:100B000014040E94EE02CEE0D4E09E012E50344048
:100B100080911D0484FD0BC084E090E0219628178D
:100B2000390744F461E08E810E94EE02EECF88E046
:100B300090E0F4CF8BE39DE00197F1F760E08091C6
:100B400012040E94BC0260E0809114040E94BC0266
:100B5000809113048F3F19F060E00E94BC028091E5
:100B60001D0484FD34C063E08EE094E00E94CE0456
:100B7000CBE4D6E4CE010197F1F763E08EE094E098
:100B80000E94CE042197F1F763E08EE094E00E948A
:100B9000CE0483E592E00197F1F762E08EE094E005
:100BA0000E94CE0480911D0480620E944E0584E064
:100BB00080931E048CE00E944E050E94540582E042
:100BC00080931F0486E0DF91CF910C944E058062E4
:100BD0000E944E058BE496E40197F1F780911D0485
:100BE00080620E944E0583E592E00197F1F78091C3
:100BF0001D0480620E944E05D5CF90912104691793
:100C000010F06FEF690FE62FF0E0E25FFB4F948981
:100C1000890F80680C944E0590E080E00E946B0183
:100C200064EF71E080E090E00E94530361E084E3B0
:100C30000E94BC0260E083E30E94BC0261E085E3A5
:100C40000E94BC0268EE73E080E090E00E945303D3
:100C500060E085E30E94BC020E9485036093060366
:100C60007093070380930803909309030E9454052F
:100C700060E080E00E94FD0588E392E00C94AB0404
:100C800041E00E94FB0481E090E008950F931F93E0
:100C9000CF93DF93EC0188819981009759F02A81E5
:100CA0003B812617370730F081E0DF91CF911F910C
:100CB0000F9108958B016F5F7F4F0E945C0F00972B
:100CC00059F0998388831B830A832C813D81232BD0
:100CD00059F7FC011082E8CF80E0E7CFEF92FF9256
:100CE0000F931F93CF93DF936115710541F480E05B
:100CF000DF91CF911F910F91FF90EF9008954115D3
:100D00005105B1F07B01EC010C811D81040F151F11
:100D1000B8010E944606882351F3288139818C81CD
:100D20009D81B701820F931F0E944F101D830C837A
:100D300081E0DECFCF93DF93EC018881998100972A
:100D400011F00E94D30E198218821D821C821B8210
:100D50001A82DF91CF910895EF92FF920F931F9324
:100D6000CF93DF93EC017B018A01BA010E94460612
:100D700081110BC0CE010E949A06CE01DF91CF9166
:100D80001F910F91FF90EF9008951D830C83B70181
:100D9000888199810E944F10F0CFFB0101900020C3
:100DA000E9F73197AF01461B570B0C94AC060F9334
:100DB0001F93CF93DF93CDB7DEB7A1970FB6F8940B
:100DC000DEBF0FBECDBF8C01CB01BA01F80111828D
:100DD000108213821282158214822AE0AE014F5FC4
:100DE0005F4F0E948E0DBE016F5F7F4FC8010E9452
:100DF000CD06A1960FB6F894DEBF0FBECDBFDF9132
:100E0000CF911F910F910895FC01118210821382DE
:100E1000128215821482FB0101900020E9F73197BC
:100E2000AF01461B570B0C94AC06FC0180819181ED
:100E3000009711F00C94D30E08951F920F920FB6E5
:100E40000F9211242F933F938F939F93AF93BF9350
:100E50008091F2029091F302A091F402B091F50218
:100E60003091F10223E0230F2D3758F50196A11D93
:100E7000B11D2093F1028093F2029093F302A093AC
:100E8000F402B093F5028091F6029091F702A091DE
:100E9000F802B091F9020196A11DB11D8093F602EE
:100EA0009093F702A093F802B093F902BF91AF912B
:100EB0009F918F913F912F910F900FBE0F901F9098
:100EC000189526E8230F0296A11DB11DD2CF1F92BF
:100ED0000F920FB60F9211240BB60F922F933F93E0
:100EE0004F935F936F937F938F939F93AF93BF9332
:100EF000EF93FF9348E251E064E271E090E080E01C
:100F00000E94ED03FF91EF91BF91AF919F918F915F
:100F10007F916F915F914F913F912F910F900BBEF9
:100F20000F900FBE0F901F9018951F920F920FB643
:100F30000F9211240BB60F922F933F934F935F9311
:100F40006F937F938F939F93AF93BF93EF93FF9391
:100F500048EA50E064EA70E083E090E00E94ED032C
:100F6000FF91EF91BF91AF919F918F917F916F9181
:100F70005F914F913F912F910F900BBE0F900FBE3D
:100F80000F901F9018951F920F920FB60F92112479
:100F90000BB60F922F933F934F935F936F937F9373
:100FA0008F939F93AF93BF93EF93FF9348E950E0E4
:100FB00064E970E082E090E00E94ED03FF91EF9120
:100FC000BF91AF919F918F917F916F915F914F9161
:100FD0003F912F910F900BBE0F900FBE0F901F905F
:100FE00018951F920F920FB60F9211240BB60F9205
:100FF0002F933F934F935F936F937F938F939F9321
:10100000AF93BF93EF93FF9348E850E064E870E03C
:1010100081E090E00E94ED03FF91EF91BF91AF91CD
:101020009F918F917F916F915F914F913F912F9100
:101030000F900BBE0F900FBE0F901F901895CF937F
:10104000DF93CDB7DEB7AE970FB6F894DEBF0FBE15
:10105000CDBF789484B5826084BD84B5816084BD41
:1010600085B5826085BD85B5816085BD80916E0046
:10107000816080936E001092810080918100826077
:1010800080938100809181008160809381008091B4
:1010900080008160809380008091B10084608093A3
:1010A000B1008091B00081608093B0008091910088
:1010B0008260809391008091910081608093910083
:1010C000809190008160809390008091A100826067
:1010D0008093A1008091A10081608093A100809104
:1010E000A00081608093A0008091210182608093A4
:1010F0002101809121018160809321018091200153
:1011000081608093200180917A00846080937A00CE
:1011100080917A00826080937A0080917A00816069
:1011200080937A0080917A00806880937A00109290
:10113000C10010920B0310920A0382E00E945C052A
:101140000E94540560E080E00E94FD058FE392E07C
:101150000E94AB0461E084E30E94EE0261E083E35D
:101160000E94EE0261E084E30E94BC0260E083E33F
:101170000E94BC0261E085E30E94EE0280910B04B4
:10118000803308F054C061E08DE00E94EE0280914F
:101190000B04282F30E0F901EE0FFF1FE20FF31FC1
:1011A000E558FC4F9081907C9D6090839EE89093E1
:1011B0000C0494E690930D042CE0622F0E94230E01
:1011C000829FB001112430E020E0AB01420F531F99
:1011D000FA01EE0FFF1FE40FF51FE558FC4F908159
:1011E00096FD17C02F5F3F4F2C30310571F78130CE
:1011F00009F0A0C01092800082E0809381001092DC
:10120000850010928400B19A80916F008260809373
:101210006F00E0910B048E2F90E0FC01EE0FFF1F9A
:10122000E80FF91FE558FC4F80818064808358EEF9
:10123000452E53E0552E612C712C43E0242E312C89
:1012400080910A0390910B0318161906CCF40E94A2
:101250008503009106031091070320910803309144
:101260000903601B710B820B930B60317742810580
:10127000910530F00E940C0610920B0310920A03A5
:1012800080910A0390910B03019721F561E086E0BC
:101290000E94FD050E94850300910603109107033B
:1012A0002091080330910903601B710B820B930B93
:1012B000A30192010E94F20DBA01A901CE0101968B
:1012C0000E94D706CE0101960E942002CE0101960F
:1012D0000E94150781E0809378030E9485030091A6
:1012E00068031091690320916A0330916B03AB018D
:1012F000BC01401B510B620B730B809174039091E6
:101300007503B0E0A0E084179507A607B70708F0BB
:1013100044C110E0809172031817C0F5E0916E038C
:10132000F0916F03E10FF11D62E080810E94EE02F7
:101330001F5FF0CF823061F4109290008093910093
:10134000109295001092940088BB8093710061CF39
:10135000833069F41092A00082E08093A100109283
:10136000A5001092A40089BB8093720052CF811116
:1013700050CF1092200182E080932101109225012C
:10138000109224018ABB8093730043CFF12C80918B
:101390007303F81608F063C0CF2CD12CE0917003D2
:1013A000F0917103EC0DFD1D61E080810E94EE0261
:1013B000E0917003F0917103EC0DFD1D60E0808100
:1013C0000E94BC0281E090E0A0E0B0E00F2C04C0DD
:1013D000880F991FAA1FBB1F0A94D2F74C015C010A
:1013E000A094B094E12C80917203E81608F50E2DBC
:1013F00010E0E0916E03F0916F03E00FF11F808128
:101400000E9490020C5F1F4F000F111FF801E45F54
:10141000FC4F892B41F480819181882999299183FE
:101420008083E394E0CF808191818A219B21F7CF53
:10143000E0917003F0917103EC0DFD1D61E080817E
:101440000E94BC028091700390917103C80ED91E56
:1014500060E0F60180810E94EE02F39498CF2CE0C8
:10146000C22E23E0D22E8601F801878D90A1892B10
:1014700031F4148E8FEF9FEF968F858F11A20A5F44
:101480001F4FE8E4F3E0E017F10771F7F12C96E065
:10149000B92E80917203F81608F052C0E12C8F2CFF
:1014A000912C880C991CC4018C5E9C4F4C0120919E
:1014B0007303E21608F042C0F401608171810E2CC2
:1014C00002C0769567950A94E2F7F29E9001112486
:1014D0002E0D311DECE0F3E080E0458D568D241794
:1014E000350709F468C18F5F36968A30B1F760FF1F
:1014F00023C0ECE0F3E090E080E0448D411117C0A0
:10150000E0916C03F0916D03E20FF31F4081B89EF0
:10151000F001B99EF00D1124E45FFC4F448F368F2B
:10152000258F10A2178E61E00E94910305C00196DD
:1015300036968A30910509F7E394B9CFF394A9CF91
:10154000F12CF60181A18111F82EF6E0CF0ED11C0D
:10155000C016D106B1F70E948503609368037093AB
:10156000690380936A0390936B03FF20B1F080912D
:101570002D03882391F080912B0390912C030197E8
:1015800061F48091280381110BC080E090E0892BE9
:1015900009F456CE0E94000050CE10927803F5CF89
:1015A0008D3309F0C4C080910A0390910B0300971A
:1015B00081F540910403509105032091FE02309182
:1015C000FF0242175307C1F4809100039091010379
:1015D0006091FA027091FB02009709F4EEC0611568
:1015E000710539F4452B09F4F6C0FC01808190E0C7
:1015F000EFC00E944610ECC00E9454058BE692E0BA
:101600000E94AB046AE672E080E093E00E94CD069F
:10161000BCCF81309105B1F38230910509F040C013
:101620008091040390910503892B61F300910003DD
:101630001091010367ED72E0C8010E944610892BEA
:1016400079F40E94540560E080E00E94FD058BE77C
:1016500092E00E94AB0430920B0320920A03D2CF97
:1016600064EE72E0C8010E944610892B59F60E9470
:10167000540560E080E00E94FD058CE892E00E9445
:10168000AB0461E080E00E94FD058CE992E00E94DD
:10169000AB0484E090E090930B0380930A03B2CFF5
:1016A00083309105F9F46091000370910103611595
:1016B000710599F040910403509105038AEF92E07F
:1016C0000E94AC060E94540560E080E00E94FD0587
:1016D00088EA92E00E94AB042FC18AEF92E00E9458
:1016E0009A06F0CF049709F08DCF80910003909176
:1016F000010320E030E0A901009721F00E94430D92
:101700009B01AC01A8EEB3E00E94DF0D60931802CC
:101710007093190280931A0290931B020E94540541
:1017200060E080E00E94FD058AEB92E0D3CF8A3230
:1017300011F580910A0390910B03019709F025CFD1
:101740000E94540589EC92E00E94AB0461E080E0C5
:101750000E94FD0589ED92E00E94AB046AE672E00A
:1017600080E093E00E94CD06E2E0F0E0F0930B030E
:10177000E0930A030ACF8F3239F40E940C061092CC
:101780000B0310920A0301CF833409F43BCF898302
:101790001A8241E050E0BE016F5F7F4F80E093E02E
:1017A0000E946E0661E08CE00E94FD0580E093E0FF
:1017B0000E942002EACE6170B7CE6115710559F022
:1017C000232B49F0FB01808190E09195819591094F
:1017D000892B09F011CF0E94540587E492E00E9402
:1017E000AB0484EB90E00E946B0164EF71E080E059
:1017F00090E00E9453030E94850360930603709358
:101800000703809308039093090360E084E30E9438
:10181000BC0261E083E30E94BC0261E085E30E94B8
:10182000BC0268EE73E080E090E00E94530360E049
:1018300085E30E94BC0289E592E00E94AB0461E06E
:1018400080E00E94FD050E9485030091060310912F
:1018500007032091080330910903601B710B820B71
:10186000930BA30192010E94F20DBA01A901CE01CE
:1018700089960E94D7066091180270911902809192
:101880001A0290911B02A30192010E94C00DCA018D
:10189000B9011CA21BA21EA21DA218A61FA22AE00B
:1018A000AE014F5F5F4F0E946A0DBE016F5F7F4FB9
:1018B000CE0183960E94CD0660E672E0CE010196CD
:1018C0000E9404074DA55EA569A57AA5CE010196E3
:1018D0000E946E06811104C0CE0101960E949A06F4
:1018E00043E050E067E672E0CE0101960E946E068A
:1018F000811104C0CE0101960E949A064FA158A5FD
:101900006BA17CA1CE0101960E946E06811104C0DC
:10191000CE0101960E949A06CE0101960E942002F5
:10192000CE0101960E941507CE0183960E941507ED
:10193000CE0189960E94150781E090E0ACCE10920E
:1019400011041092100480E392E090930F048093AE
:101950000E048BE0809312048FEF809313048AE0CF
:101960008093140489E08093150488E08093160422
:1019700087E08093170486E080931804109219047E
:1019800010921A0410921B0410921C0410921D0451
:1019900081E00E945C0510920E03109212031092D7
:1019A00011031092130386E292E090930D0380934B
:1019B0000C03E8E2F3E0108214821382158236965B
:1019C00083E0E436F807B9F784E092E090936F0380
:1019D00080936E0380E092E0909371038093700394
:1019E00084E0809372038093730388E092E0909385
:1019F0006D0380936C038AE090E09093750380936D
:101A0000740384EF91E090937703809376031092B0
:101A10007A0310927903109268031092690310926E
:101A20006A0310926B03109278038091EC0280336A
:101A3000F0F491E0980F9093EC0280930B0490E007
:101A4000FC01EE0FFF1FE80FF91FE558FC4F88EB74
:101A50009BE09283818366EE72E08AEF92E00E94BF
:101A600004076AE672E080E093E00C9404078FEFCD
:101A700080930B04F0CF80E093E00E9415078AEF7B
:101A800092E00C9415071F93FC0199278827BC014D
:101A9000E89411911032E9F3193010F01E30C8F3B8
:101AA0001B3251F01D3249F4689406C00E94790D32
:101AB000610F711D811D911D119110531A30B0F3EA
:101AC0003EF490958095709561957F4F8F4F9F4F15
:101AD0001F910895BB272A3051F4992342F4BDE2A7
:101AE00090958095709561957F4F8F4F9F4F0C9487
:101AF0008F0D592F482F372F262F660F771F881FDE
:101B0000991F660F771F881F991F620F731F841F0D
:101B1000951F660F771F881F991F0895BB27FA012D
:101B2000A62F6217710581059105330B30FB66F016
:101B3000AA27660F771F881F991FAA1FA21710F0E8
:101B4000A21B63953850A9F7A05DAA3308F0A95DE0
:101B5000A19336F7B111B1931082CA010C94B00D64
:101B6000DC01FC01672F71917723E1F7329704C004
:101B70007C916D9370836291AE17BF07C8F308958F
:101B8000052E97FB1EF400940E94D70D57FD07D039
:101B90000E94F20D07FC03D04EF40C94D70D509523
:101BA0004095309521953F4F4F4F5F4F0895909549
:101BB0008095709561957F4F8F4F9F4F08950E943C
:101BC000140EA59F900DB49F900DA49F800D911DA4
:101BD00011240895B7FF0C94DF0D0E94DF0D821BC6
:101BE000930B0895A1E21A2EAA1BBB1BFD010DC089
:101BF000AA1FBB1FEE1FFF1FA217B307E407F507BD
:101C000020F0A21BB30BE40BF50B661F771F881F98
:101C1000991F1A9469F760957095809590959B012E
:101C2000AC01BD01CF010895A29FB001B39FC001D7
:101C3000A39F700D811D1124911DB29F700D811DF8
:101C40001124911D0895991B79E004C0991F9617DE
:101C500008F0961B881F7A95C9F780950895EE0FB6
:101C6000FF1F881F8BBF0790F691E02D19940F93EB
:101C70001F93CF93DF938230910510F482E090E0C0
:101C8000E0912804F091290430E020E0B0E0A0E0E9
:101C9000309799F42115310509F44AC0281B390BF6
:101CA00024303105D8F58A819B816115710589F150
:101CB000FB0193838283FE0111C040815181028127
:101CC000138148175907E0F04817590799F41097FE
:101CD00061F012960C93129713961C933296CF01D3
:101CE000DF91CF911F910F910895009328041093D5
:101CF0002904F4CF2115310551F04217530738F06C
:101D0000A901DB019A01BD01DF01F801C1CFEF019B
:101D1000F9CF9093290480932804CDCFFE01E20FE0
:101D2000F31F819391932250310939832883D7CFB0
:101D30002091260430912704232B41F420911E0288
:101D400030911F02309327042093260420911C0217
:101D500030911D022115310541F42DB73EB7409158
:101D6000200250912102241B350BE0912604F091B2
:101D70002704E217F307A0F42E1B3F0B281739079F
:101D800078F0AC014E5F5F4F2417350748F04E0FD7
:101D90005F1F5093270440932604819391939FCF14
:101DA000F0E0E0E09CCFCF93DF930097E9F0FC01F7
:101DB000329713821282A0912804B0912904ED0178
:101DC00030E020E01097A1F420813181820F931F31
:101DD00020912604309127042817390709F061C0A3
:101DE000F0932704E0932604DF91CF910895EA0150
:101DF000CE17DF07E8F54A815B819E014115510549
:101E0000B1F7E901FB83EA8349915991C40FD51FCA
:101E1000EC17FD0761F4808191810296840F951F74
:101E2000E90199838883828193819B838A83F0E08F
:101E3000E0E012968D919C9113970097B9F52D9142
:101E40003C911197CD010296820F931F2091260499
:101E5000309127042817390739F6309751F5109239
:101E6000290410922804B0932704A0932604BCCF21
:101E7000D383C28340815181840F951FC817D9072E
:101E800061F44E5F5F4F88819981480F591F5183DC
:101E900040838A819B81938382832115310509F0D8
:101EA000B0CFF0932904E09328049ECFFD01DC011C
:101EB000C0CF13821282D7CF4F925F926F927F92E0
:101EC0008F929F92AF92BF92CF92DF92EF92FF924A
:101ED0000F931F93CF93DF938C01009799F4CB015D
:101EE000DF91CF911F910F91FF90EF90DF90CF90F6
:101EF000BF90AF909F908F907F906F905F904F902A
:101F00000C94370EFC01E60FF71F9C01225031099B
:101F1000E217F30708F4AEC0D901CD91DC91119717
:101F2000C617D70720F1C530D10578F0CE01049748
:101F30008617970750F0C61BD70B2297C193D193F2
:101F40006D937C93CF010E94D30EC801DF91CF9196
:101F50001F910F91FF90EF90DF90CF90BF90AF90C7
:101F60009F908F907F906F905F904F9008955B014E
:101F7000AC1ABD0A4C018C0E9D1EA0912804B09194
:101F80002904512C412CF12CE12C109731F5809132
:101F90002604909127048815990509F05CC046161F
:101FA000570608F058C080911C0290911D020097BE
:101FB00041F48DB79EB74091200250912102841BBD
:101FC000950BE817F90708F055C0F0932704E09344
:101FD0002604F90171836083B8CF8D919C9111978C
:101FE00012966C90129713967C901397A815B905CA
:101FF00059F56C0142E0C40ED11CCA14DB0420F177
:10200000AC014A195B09DA011296159780F06282D9
:10201000738251834083D9016D937C93E114F10461
:1020200071F0D7011396FC93EE9312978ECF229600
:102030008C0F9D1FF90191838083F301EFCFF09303
:102040002904E093280481CF4816590608F42C018E
:102050007D01D3019ACFCB010E94370E7C010097FE
:1020600049F0AE01B8010E943D10C8010E94D30E94
:1020700087016BCF10E000E068CFFB01DC0102C0FC
:1020800001900D9241505040D8F70895FB01DC01BA
:102090008D91019080190110D9F3990B0895FB01DE
:1020A000DC0101900D920020E1F7089511E0C7E3F3
:1020B000D1E000E006C0802FFE010E942F0E219685
:1020C000011DC833D10780E00807A9F7F894FFCFB6
:1020D000161718191A1B1C1D3738392F3435362A94
:1020E0003132332D43303D2B1027000000002A04ED
:1020F0008000000000002A03EA02B902000000008C
:102100004006F301A804A704436C6F7365640043A1
:102110006C6F7365642100436F7272656374205045
:10212000617373776F726421004F70656E65640030
:102130005370656E742000202F200057726F6E67F9
:102140002050617373776F72642100536574204E61
:1021500065772050617373636F646500456E7465C5
:1021600072204E65772054696D657200696E207328
:1021700065636F6E6473200050617373636F646591
:10218000204368616E676564210054696D65722043
:102190004368616E67656421005365742050617304
:1021A00073636F64653A2031005365742054696D20
:0C21B00065723A203200313233340000F6
:00000001FF
