:100000000C94B5010C94E6010C94E6010C94E60105
:100010000C94E6010C94E6010C94E6010C94E601C4
:100020000C94E6010C94E6010C94E6010C94E601B4
:100030000C94E6010C94E6010C94E6010C94E601A4
:100040000C94E6010C94E6010C94E6010C94E60194
:100050000C94E6010C94E6010C94E6010C942D0638
:100060000C94E6010C94E6010C94E6010C94E60174
:100070000C94E6010C94E6010C94E6010C94E60164
:100080000C94E6010C94E6010C94E6010C94E60154
:100090000C94E6010C94E6010C94E6010C94E60144
:1000A0000C94E6010C94E6010C94E6010C94E60134
:1000B0000C94E6010C94E6010C94E6010C94E60124
:1000C0000C94E6010C94E6010C94E6010C94E60114
:1000D0000C94E6010C94E6010C94E6010C94E60104
:1000E0000C94E6010C940C030C944B030C94E30267
:1000F0000C948D020C941E030C9406030C94EB02DA
:100100000C94EE020C94BC030C94FE020C94F802C6
:100110000C94E7020C94D9020C94230A0C94C003AB
:100120000C94DF020C947C030C948E020C9402035A
:100130000C941A030C9408050C9419030C94A1094F
:100140000C9410030C9414030C94F40200407A10E5
:10015000F35A00A0724E18090010A5D4E80000E878
:100160007648170000E40B54020000CA9A3B0000D6
:1001700000E1F505000080969800000040420F0065
:100180000000A08601000000102700000000E80326
:10019000000000006400000000000A0000000000F1
:1001A0000100000000002C76D888DC674F0823DFB0
:1001B000C1DFAE59E1B1B796E5E3E453C63AE65183
:1001C000997696E8E6C28426EB898C9B62ED407CAA
:1001D0006FFCEFBC9C9F40F2BAA56FA5F490055A46
:1001E0002AF75C936B6CF9676DC11BFCE0E40D476B
:1001F000FEF520E6B500D0ED902E0300943577058E
:100200000080841E080000204E0A000000C80C3345
:100210003333330F986E12831141EF8D2114893BD4
:10022000E65516CFFEE6DB18D1844B381BF77C1D54
:10023000901DA4BBE424203284725E228100C9F1A7
:1002400024ECA1E53D2700002100240027002A001E
:100250002D003000330001010000040107010A01F4
:1002600000002200250028002B002E003100340061
:1002700002010000050108010B010000200023001D
:10028000260029002C002F0032000001000003018D
:100290000601090105050505070508080808020209
:1002A00002020A0A08080404040401010101010110
:1002B00001010303030303030303040707070C0CF3
:1002C0000C0C0C0C0C0C02020202060606060606BA
:1002D00006060B0B0B0B0B0B0B0B0102102020085F
:1002E0000810204010204080020102010804020191
:1002F0000102040810204080804020100804020100
:100300008004020180402010080402010804020158
:1003100001020408102040800102040810204080DF
:1003200000000A0B02090C0D0E080703040100006F
:1003300000000000000000000000000000000000BD
:10034000000000000000000000000000121110007A
:10035000000000000000000000000000000000009D
:10036000000000000000A109230A11241FBECFEFE6
:10037000D1E2DEBFCDBF00E00CBF22E0A6E3B2E0D9
:1003800001C01D92AE3DB207E1F712E0A0E0B2E07D
:10039000EEEDFEE100E00BBF02C007900D92A63328
:1003A000B107D9F711E0C4EBD1E000E006C0219716
:1003B0000109802FFE010E942B0DC33BD10780E075
:1003C0000807A9F70E9477060C945D0F0C940000B3
:1003D00096E0899FD0011124AD5ABD4F90967C9331
:1003E0006E935F9791E091969C939197E091C002F4
:1003F000F091C1029091BF02992339F0309751F0EA
:10040000811108C080916F021994309719F05C96A1
:100410008C91FACF0895CF92DF92EF92FF920F93D3
:100420001F9396E0899FF0011124ED5AFD4F11A210
:10043000278D30A12130310551F178F0223031057E
:1004400009F451C02330310509F452C01F910F91B6
:10045000FF90EF90DF90CF9008956623B9F361E0AD
:1004600070E00E94E8012FB7F89480914F029091BC
:100470005002A0915102B09152022FBF8093AB0263
:100480009093AC02A093AD02B093AE02DFCF9FB7C2
:10049000F894C0904F02D0905002E0905102F0903A
:1004A00052029FBF0091AB021091AC022091AD02AD
:1004B0003091AE02C01AD10AE20AF30A0091BD02DD
:1004C0001091BE0230E020E00C151D052E053F0501
:1004D00050F462E070E01F910F91FF90EF90DF9079
:1004E000CF900C94E8016111B1CF63E070E0F3CFDD
:1004F00070E060E0F0CFFC01248135816217730762
:1005000020F480819181009729F410923B028BE3C3
:1005100092E00895860F971F08950895AF92BF92B5
:10052000CF92DF92EF92FF920F931F93CF93DF93BF
:100530006C017B018B01040F151FEB015E01AE18EE
:10054000BF08C017D10759F06991D601ED91FC9110
:100550000190F081E02DC6011995892B79F7C5012D
:10056000DF91CF911F910F91FF90EF90DF90CF908F
:10057000BF90AF9008958150823108F05AC0E82FA3
:10058000F0E08827E953FD4F8F4F0C942B0DE702C5
:10059000EB02D902DF02E3021903EE02F402F802D1
:1005A000FE02020306030C031003190314031A03CB
:1005B0001E03809180008F77809380000895809142
:1005C00080008F7DF9CF80918000877FF5CF84B543
:1005D0008F7784BD089584B58F7DFBCF8091B00067
:1005E0008F778093B00008958091B0008F7DF9CF10
:1005F000809190008F778093900008958091900073
:100600008F7DF9CF80919000877FF5CF8091A000FA
:100610008F778093A00008958091A0008F7DF9CFFF
:100620008091A000877FF5CF809120018F77809304
:1006300020010895809120018F7DF9CF80912001C4
:10064000877FF5CFCF93DF93282F30E0F901E05E6D
:10065000FC4F8491F901E652FD4FD491F901EC561B
:10066000FD4FC491CC23A1F081110E94BB02EC2F5D
:10067000F0E0EE0FFF1FE658FD4FA591B491EC910D
:10068000ED2381E090E009F480E0DF91CF910895BF
:1006900080E090E0FACF862F0C9422031F93CF9333
:1006A000DF93282F30E0F901E05EFC4F8491F901DF
:1006B000E652FD4FD491F901EC56FD4FC491CC2385
:1006C000A9F0162F81110E94BB02EC2FF0E0EE0F73
:1006D000FF1FE05AFD4FA591B4918FB7F894EC91AC
:1006E000111108C0D095DE23DC938FBFDF91CF912D
:1006F0001F910895DE2BF8CF862F642F0C944E03A4
:10070000CF93DF9390E0FC01E652FD4F24918C568D
:100710009D4FFC0184918823C9F090E0880F991FB8
:10072000FC01EA5BFD4FA591B491FC01E05AFD4F3D
:10073000C591D49161110DC09FB7F8948C9120950B
:1007400082238C938881282328839FBFDF91CF91B8
:100750000895623051F49FB7F8943C91822F8095B0
:1007600083238C93E8812E2BEFCF8FB7F894EC91F5
:100770002E2B2C938FBFEACF862F642F0C948003EF
:1007800090E080E00895CF93DF93EC0160E08E81EC
:100790000E944E0361E08E810E944E0360E08E81D4
:1007A0000E944E038BE891E00197F1F7DF91CF9122
:1007B0000895CF92DF92EF92FF920F931F93CF9302
:1007C000DF936C017C0187E0E80EF11CD0E0C0E013
:1007D000062F10E0B8010C2E02C0759567950A949B
:1007E000E2F76170F70181917F010E944E0321962B
:1007F000C430D10579F7C601DF91CF911F910F91D8
:10080000FF90EF90DF90CF900C94C303CF92DF92D4
:10081000EF92FF920F931F93CF93DF93EC01F62E8D
:10082000642F8C810E944E038D818F3F19F060E010
:100830000E944E030F2D10E08F8584FF25C06E01AE
:1008400087E0C80ED11CF12CE12CB8010E2C02C09F
:10085000759567950A94E2F76170F60181916F01D1
:100860000E944E03FFEFEF1AFF0A88E0E816F1043A
:1008700061F7CE01DF91CF911F910F91FF90EF9023
:10088000DF90CF900C94C303B80184E07595679511
:100890008A95E1F7CE010E94D9036F2DCE01DF9139
:1008A000CF911F910F91FF90EF90DF90CF900C941C
:1008B000D90340E0682F82EC92E00C94060481E0BA
:1008C0000E9459048BE39FE10197F1F70895CF93BC
:1008D000DF93823029F49091D10298609093D102F5
:1008E0008093D5021092D60280E48093D70280E1F3
:1008F0008093D80280E58093D90261E08091C6029E
:100900000E9480038091C7028F3F19F061E00E942E
:10091000800361E08091C8020E948003C2ECD2E0B3
:100920009E01225C32408091D10284FD0BC084E0A4
:1009300090E021962817390744F461E08E810E94E7
:100940008003EECF88E090E0F4CF8BE39DE0019749
:10095000F1F760E08091C6020E944E0360E0809152
:10096000C8020E944E038091C7028F3F19F060E0D9
:100970000E944E038091D10284FD34C063E082EC7A
:1009800092E00E94D903CBE4D6E4CE010197F1F7BF
:1009900063E082EC92E00E94D9032197F1F763E0D3
:1009A00082EC92E00E94D90383E592E00197F1F78F
:1009B00062E082EC92E00E94D9038091D1028062D1
:1009C0000E94590484E08093D2028CE00E94590472
:1009D0000E945F0482E08093D30286E0DF91CF9192
:1009E0000C94590480620E9459048BE496E40197A8
:1009F000F1F78091D10280620E94590483E592E070
:100A00000197F1F78091D10280620E945904D5CFFD
:100A100041E00E94060481E090E008950F931F9347
:100A2000CF93DF938C01EB01FC01808191810097D2
:100A3000E1F06881798161157105A9F042815381E6
:100A40002C813D814217530770F00E94560F8C8114
:100A50009D81F801958384831D821C82DF91CF9153
:100A60001F910F9108950E94E30D88819981F801EB
:100A7000918380838A819B81938382838C819D81F2
:100A800095838483198218821B821A82E5CFCF93C3
:100A9000DF93EC0188819981009711F00E94E30DAA
:100AA000198218821D821C821B821A82DF91CF91CB
:100AB0000895FC0180819181009711F00C94E30D61
:100AC00008950F931F93CF93DF93EC018881998151
:100AD000009759F02A813B812617370730F081E0D3
:100AE000DF91CF911F910F9108958B016F5F7F4F21
:100AF0000E946C0E009759F0998388831B830A83A8
:100B00002C813D81232B59F7FC011082E8CF80E036
:100B1000E7CFEF92FF920F931F93CF93DF93EC01F8
:100B20007B018A01BA010E94610581110BC0CE01CF
:100B30000E944705CE01DF91CF911F910F91FF9049
:100B4000EF9008951D830C83B701888199810E94DD
:100B5000560FF0CFFC01118210821382128215828F
:100B6000148250E040E064E372E00C948905FB01DC
:100B700001900020E9F73197AF01461B570B0C9409
:100B80008905AF92BF92CF92DF92EF92FF920F93BF
:100B90001F93CF93DF93EC015B016A017901241766
:100BA000350720F48D2D6901E42EF82E1982188264
:100BB0001B821A821D821C8250E040E064E372E0D6
:100BC000CE010E948905D50114960D911C91C01685
:100BD000D106E8F4E016F10608F48701D501ED919D
:100BE000FC911197E00FF11FF08010826D917C91C4
:100BF0006C0D7D1DCE0161157105A9F00E94B70530
:100C0000F50180819181080F191FD801FC92CE0156
:100C1000DF91CF911F910F91FF90EF90DF90CF90D8
:100C2000BF90AF9008950E944705EACFCF93DF931E
:100C3000EC01FB018617970749F06081718161150E
:100C4000710541F0448155810E948905CE01DF91F3
:100C5000CF9108950E944705F9CF1F920F920FB6CA
:100C60000F9211242F933F938F939F93AF93BF9332
:100C700080914F0290915002A0915102B091520286
:100C800030913A0223E0230F2D3758F50196A11D2C
:100C9000B11D20933A0280934F0290935002A0938B
:100CA0005102B09352028091360290913702A09186
:100CB0003802B09139020196A11DB11D8093360210
:100CC00090933702A0933802B0933902BF91AF914D
:100CD0009F918F913F912F910F900FBE0F901F907A
:100CE000189526E8230F0296A11DB11DD2CFCF93F0
:100CF000DF93CDB7DEB7E3970FB6F894DEBF0FBE34
:100D0000CDBF789484B5826084BD84B5816084BD94
:100D100085B5826085BD85B5816085BD80916E0099
:100D2000816080936E0010928100809181008260CA
:100D30008093810080918100816080938100809107
:100D400080008160809380008091B10084608093F6
:100D5000B1008091B00081608093B00080919100DB
:100D600082608093910080919100816080939100D6
:100D7000809190008160809390008091A1008260BA
:100D80008093A1008091A10081608093A100809157
:100D9000A00081608093A0008091210182608093F7
:100DA00021018091210181608093210180912001A6
:100DB00081608093200180917A00846080937A0022
:100DC00080917A00826080937A0080917A008160BD
:100DD00080937A0080917A00806880937A001092E4
:100DE000C10082E00E9467040E945F04E1E08091FC
:100DF000D5028111E0E0E195F0E0EE53FD4F8489EA
:100E000080680E94590422242A94322C21E02093E5
:100E1000BF028FB7F89440914F02509150026091F9
:100E20005102709152028FBF8091AF029091B00237
:100E3000A091B102B091B202481B590B6A0B7B0B17
:100E40008091BB029091BC02B0E0A0E084179507AE
:100E5000A607B707D8F610E08091B902181760F41A
:100E6000E091B502F091B602E10FF11D62E08081E0
:100E70000E9480031F5FF0CF912C8091BA029816D8
:100E800008F063C0E92CF12CE091B702F091B802B0
:100E9000EE0DFF1D61E080810E948003E091B702AA
:100EA000F091B802EE0DFF1D60E080810E944E03BC
:100EB00081E090E0A0E0B0E0092C04C0880F991F09
:100EC000AA1FBB1F0A94D2F75C016C01C094D09496
:100ED000812C8091B902881608F5082D10E0E09168
:100EE000B502F091B602E00FF11F80810E9422034B
:100EF0000C5F1F4F000F111FF801ED5AFD4F892B9A
:100F000041F4808191818A299B29918380838394F4
:100F1000E0CF808191818C219D21F7CFE091B702B4
:100F2000F091B802EE0DFF1D61E080810E944E033A
:100F30008091B7029091B802E80EF91E60E0F701C7
:100F400080810E948003939498CF93E5E92E92E0EC
:100F5000F92E8701F801878D90A1892B21F4148E39
:100F6000368E258E11A20A5F1F4FF2E00F381F0741
:100F700089F7D12C8091B902D81608F053C0C12C42
:100F8000AD2CB12CAA0CBB1CA501455A5D4F5A01D2
:100F90002091BA02C21608F043C0F5016081718148
:100FA0000C2C02C0769567950A94E2F7D29E9001C8
:100FB00011242C0D311DE3E5F2E080E0458D568DC6
:100FC0002417350709F4BBC18F5F36968A30B1F715
:100FD00060FF24C0E3E5F2E090E080E0448D411141
:100FE00018C0E091B302F091B402E20FF31F408108
:100FF00056E0589FF001599FF00D1124ED5AFD4F16
:10100000448F368F258F10A2178E61E00E940B024D
:1010100005C0019636968A30910501F7C394B8CF82
:10102000D394A8CF80E0F70191A19111892FF6E028
:10103000EF0EF11C0E151F05B1F79FB7F894409104
:101040004F025091500260915102709152029FBF25
:101050004093AF025093B0026093B1027093B2021A
:10106000882309F4D3CE80917402882309F4CECE6C
:101070008091720290917302019709F0C7CEF090AF
:101080006F02FF2009F4C2CE2DE3F21223C11BA28E
:101090001AA21DA21CA21FA21EA269E472E0CE0128
:1010A00082960E94160610E000E08EA19FA108170C
:1010B000190708F0DCC0B801CE0182960E947B02BD
:1010C00078014FEFE41AF40AFC0180818B32E1F0E1
:1010D000B801CE0182960E947B02FC0180818D3294
:1010E00099F0B801CE0182960E947B02FC018081BA
:1010F0008A3251F0B801CE0182960E947B02FC0137
:1011000080818F3209F0B1C0980150E040E0BE010B
:101110006E5D7F4FCE0101960E94C105BE016F5FDB
:101120007F4F8CE392E00E940E05CE0101960E9453
:1011300059052EA13FA10217130708F09BC08AA1F1
:101140009BA1009709F496C0800F911FFC01F080CD
:10115000F0924802A8014F5F5F4FBE016E5D7F4F66
:10116000CE0101960E94C105BE016F5F7F4F82E4F0
:1011700092E00E940E05CE0101960E945905CE0113
:1011800082960E94590519A618A61BA61AA61DA686
:101190001CA662E472E0CE0188960E9416061BA28D
:1011A0001AA21DA21CA21FA21EA26CE372E0CE0115
:1011B00082960E9416068AA19BA1009709F45CC042
:1011C0000E944D0A8B0188A599A5009709F458C083
:1011D0000E944D0A9B01FBE2FF1609F45FC0FF1558
:1011E0000CF452C04AE2F41609F467C01FA61EA60A
:1011F00019AA18AA1BAA1AAA8E010F5F1F4F22E074
:1012000044E0C301B2010E942F0A009709F45DC0B7
:10121000BC01CE018E960E94B705CE0182960E9437
:101220005905CE0188960E94590541E06DE382EC94
:1012300092E00E9406044AA95BA96EA57FA582ECF4
:1012400092E00E948E0264E372E089E492E00E94E0
:10125000B705CE018E960E945905E0E0F0E0EF2B35
:1012600009F4D4CD0E940000D1CD87011ECF10E03B
:1012700000E04ACFF12C6CCF60E070E0CB01A2CF50
:1012800060E070E0CB01A6CF5DE2F51691F08FE251
:10129000F812ACCFC8010E94170D02C0600F711F79
:1012A000072E000C880B990B0E94DC0C2B013C01D3
:1012B0009DCFB801621B730BF3CF029FB001039F58
:1012C000700D129F700D1124EBCFCE018E960E94EF
:1012D0004705A3CF93E4F91209C064E372E089E4FF
:1012E00092E00E94B7050E945F04B7CFF9821A828C
:1012F00000914D0210914E020F5F1F4FB80189E41B
:1013000092E00E946105882399F020914902309172
:101310004A0280914D0290914E02BE016F5F7F4F55
:10132000820F931F0E94560F10934E0200934D029E
:1013300041E06F2D82EC92E00E9406048ECF617036
:1013400065CE1092C5021092C4028CE292E0909396
:10135000C3028093C2028DE08093C6028FEF809318
:10136000C7028CE08093C8028BE08093C9028AE0B8
:101370008093CA0289E08093CB0288E08093CC02FC
:101380001092CD021092CE021092CF021092D00293
:101390001092D10281E00E946704109255021092CF
:1013A00059021092580210925A0282E292E09093EF
:1013B000540280935302EFE6F2E01082148213820B
:1013C0001582369682E0EB3AF807B9F784E092E0AE
:1013D0009093B6028093B50280E092E09093B802B9
:1013E0008093B70284E08093B9028093BA0288E0C8
:1013F00092E09093B4028093B3028AE090E09093DD
:10140000BC028093BB0284EF91E09093BE02809374
:10141000BD021092C1021092C0021092AF0210924F
:10142000B0021092B1021092B2021092BF0289E48F
:1014300092E00E94AA058CE392E00E94AA0582E451
:1014400092E00C94AA0582E492E00E9459058CE394
:1014500092E00E94590589E492E00C945905EF92BC
:101460000F931F93CF93DF93E80134E047FD34E1FE
:10147000042E000C550B57FF03C05195419551099F
:10148000E32E022F242FAE010E94890ACE01DF91A4
:10149000CF911F910F91EF9008951F93FC01992711
:1014A0008827BC01E89411911032E9F3193010F04B
:1014B0001E30C8F31B3251F01D3249F4689406C047
:1014C0000E94740A610F711D811D911D11911053AD
:1014D0001A30B0F33EF490958095709561957F4FEA
:1014E0008F4F9F4F1F910895592F482F372F262F29
:1014F000660F771F881F991F660F771F881F991F18
:10150000620F731F841F951F660F771F881F991F17
:1015100008958F929F92AF92BF92CF92DF92EF92F7
:10152000FF920F931F93CF93DF9300D000D000D092
:10153000CDB7DEB76A01F22EB02E102FFBE3AF2E2F
:10154000A01608F41BE31F5F012F27E0AE014F5FD9
:101550005F4F0E94020CBC018981982F99709130D5
:1015600009F44EC09BE2E1FC04C09E2D9170E0FCAA
:1015700049C05E2D5071E82FE87083FF55C084E0AC
:10158000911101C083E0EF2DE81B8F1508F0E0E01A
:10159000D6018E2F20E25523C9F1992329F0D601D7
:1015A0009C93C60101966C0196012D5F3F4FE2FEB0
:1015B00033C08EE4D6018C9391E411969C931197DD
:1015C00012968C93D9018E2F90E281112AC0E20FDE
:1015D000F32FF11D10828EEF9FEF29960FB6F8942E
:1015E000DEBF0FBECDBFDF91CF911F910F91FF9056
:1015F000EF90DF90CF90BF90AF909F908F90089525
:101600009DE2B7CF90E2B5CF2D9381508111FCCFF1
:10161000CE0ED11CE0E0C1CF8EE6D6018C9391E6D0
:10162000CCCF9D938150D1CF482F447082FF3DC0D5
:1016300084E0911101C083E08F1510F4EF2DE81BB9
:10164000D6018E2F20E2552309F1992329F0D601E6
:101650009C93C60101966C0196012D5F3F4FE2FEFF
:101660001BC089E4D6018C938EE411968C9311975C
:1016700086E412968C93D9018E2F90E2882309F488
:10168000A6CF9D938150FACF2D9381508111FCCF2D
:10169000CE0ED11CE0E0D9CF89E6D6018C938EE640
:1016A00011968C93119786E6E4CF9B0177FF02C0D9
:1016B00030E020E0A1E0B0E0911102C0B0E0A0E095
:1016C000F9013196AE0FBF1F8B2C912CBB2009F472
:1016D00061C05401EFEFAE1ABE0AAA0DBB1DFA1687
:1016E0001B0619F014F04F2D4A1B511188C0E3FC62
:1016F00059C07601A42FB0E2A1114FC0C40ED11C75
:10170000992309F45BC040E0D6011196F60190835D
:101710006D01552309F448C0012F060F9A81582FF7
:10172000507184FF03C0913309F4015010160CF07E
:1017300047C0093008F008E0EEE2FE2E5B01A01A77
:10174000B10885019194819491082F3F320729F4C3
:10175000D601FC92F60131966F016217730794F17E
:10176000021713077CF5DB01A21BB30BAA24A39479
:10177000B12CAC0EBD1EAA0DBB1D11968C91215033
:101780003109D601119628153905F4F0F601808348
:101790006D01DBCFB12CA12CA0CFF701B1937F015C
:1017A000A150AACF9111B0CFD601942F50E302C01F
:1017B0005D9391509111FCCFC40ED11C40E0ACCF91
:1017C00001E0BACF80E3DBCF6217730731F49633C1
:1017D00088F4953311F4552369F0F6018083FD01F7
:1017E000842F90E2811108C0A40FB11D1C9290E0DB
:1017F00080E0F3CE81E3F1CF91938150F3CF91114B
:1018000083CF8ACF283008F027E03327DA01990FF9
:10181000311D87FD916000966105710539F43260D4
:101820002E5F3D9330E32A95E1F708959F3F30F016
:1018300080387105610509F03C5F3C5F3D93913054
:1018400008F08068911DDF93CF931F930F93FF9251
:10185000EF92192F987F9695E92F96959695E90F17
:10186000FF27EA55FE4F99273327EE24FF24A701CF
:10187000E70105900894079428F4360FE71EF81E38
:10188000491F511D660F771F881F991F0694A1F7E6
:101890000590079428F4E70EF81E491F561FC11D36
:1018A000770F881F991F661F0694A1F7059007946C
:1018B00028F4F80E491F561FC71FD11D880F991F06
:1018C000661F771F0694A1F70590079420F4490F2F
:1018D000561FC71FD81F990F661F771F881F0694B2
:1018E000A9F784911095177041F0D695C795579533
:1018F0004795F794E7941A95C1F7ECE4F1E0689402
:101900001590159135916591959105907FE27395AC
:10191000E118F10A430B560BC90BD009C0F7E10CD3
:10192000F11E431F561FC91FD01D7EF4703311F4E2
:101930008A95E6CFE894015030F0080F0AF40027AA
:10194000021708F4202F2395022F7A3328F079E329
:101950007D932A95E9F710C07D932A9589F6069420
:1019600097956795379517951794E118F10A430BEA
:10197000560BC90BD00998F023957E9173957A3355
:1019800008F070E37C932013B8F77E9170617D932B
:1019900030F0839571E37D9370E32A95E1F711248C
:1019A000EF90FF900F911F91CF91DF91992787FDC5
:1019B00090950895E89409C097FB3EF49095809522
:1019C000709561957F4F8F4F9F4F9923A9F0F92F05
:1019D00096E9BB279395F695879577956795B79583
:1019E000F111F8CFFAF4BB0F11F460FF1BC06F5F69
:1019F0007F4F8F4F9F4F16C0882311F096E911C07B
:101A0000772321F09EE8872F762F05C0662371F09B
:101A100096E8862F70E060E02AF09A95660F771FAF
:101A2000881FDAF7880F9695879597F9089597FBA1
:101A3000072E16F4009407D077FD09D00E94330DCD
:101A400007FC05D03EF4909581959F4F08957095C1
:101A500061957F4F0895EE0FFF1F881F8BBF079082
:101A6000F691E02D1994AA1BBB1B51E107C0AA1FD8
:101A7000BB1FA617B70710F0A61BB70B881F991F2F
:101A80005A95A9F780959095BC01CD0108950F93C3
:101A90001F93CF93DF938230910510F482E090E0A2
:101AA000E091DC02F091DD0230E020E0B0E0A0E067
:101AB000309799F42115310509F44AC0281B390BD8
:101AC00024303105D8F58A819B816115710589F132
:101AD000FB0193838283FE0111C040815181028109
:101AE000138148175907E0F04817590799F41097E0
:101AF00061F012960C93129713961C933296CF01B5
:101B0000DF91CF911F910F9108950093DC02109304
:101B1000DD02F4CF2115310551F04217530738F09B
:101B2000A901DB019A01BD01DF01F801C1CFEF017D
:101B3000F9CF9093DD028093DC02CDCFFE01E20F5E
:101B4000F31F819391932250310939832883D7CF92
:101B50002091DA023091DB02232B41F420911A020A
:101B600030911B023093DB022093DA02209118029D
:101B7000309119022115310541F42DB73EB740913E
:101B80001C0250911D02241B350BE091DA02F091EA
:101B9000DB02E217F307A0F42E1B3F0B28173907CF
:101BA00078F0AC014E5F5F4F2417350748F04E0FB9
:101BB0005F1F5093DB024093DA02819391939FCF92
:101BC000F0E0E0E09CCFCF93DF930097E9F0FC01D9
:101BD000329713821282A091DC02B091DD02ED01F6
:101BE00030E020E01097A1F420813181820F931F13
:101BF0002091DA023091DB022817390709F061C021
:101C0000F093DB02E093DA02DF91CF910895EA01CD
:101C1000CE17DF07E8F54A815B819E01411551052A
:101C2000B1F7E901FB83EA8349915991C40FD51FAC
:101C3000EC17FD0761F4808191810296840F951F56
:101C4000E90199838883828193819B838A83F0E071
:101C5000E0E012968D919C9113970097B9F52D9124
:101C60003C911197CD010296820F931F2091DA02C9
:101C70003091DB022817390739F6309751F5109269
:101C8000DD021092DC02B093DB02A093DA02BCCF3B
:101C9000D383C28340815181840F951FC817D90710
:101CA00061F44E5F5F4F88819981480F591F5183BE
:101CB00040838A819B81938382832115310509F0BA
:101CC000B0CFF093DD02E093DC029ECFFD01DC019A
:101CD000C0CF13821282D7CF4F925F926F927F92C2
:101CE0008F929F92AF92BF92CF92DF92EF92FF922C
:101CF0000F931F93CF93DF938C01009799F4CB013F
:101D0000DF91CF911F910F91FF90EF90DF90CF90D7
:101D1000BF90AF909F908F907F906F905F904F900B
:101D20000C94470DFC01E60FF71F9C01225031096E
:101D3000E217F30708F4AEC0D901CD91DC911197F9
:101D4000C617D70720F1C530D10578F0CE0104972A
:101D50008617970750F0C61BD70B2297C193D193D4
:101D60006D937C93CF010E94E30DC801DF91CF9169
:101D70001F910F91FF90EF90DF90CF90BF90AF90A9
:101D80009F908F907F906F905F904F9008955B0130
:101D9000AC1ABD0A4C018C0E9D1EA091DC02B091C4
:101DA000DD02512C412CF12CE12C109731F5809162
:101DB000DA029091DB028815990509F05CC046169D
:101DC000570608F058C080911802909119020097A8
:101DD00041F48DB79EB740911C0250911D02841BA7
:101DE000950BE817F90708F055C0F093DB02E09374
:101DF000DA02F90171836083B8CF8D919C911197BC
:101E000012966C90129713967C901397A815B905AB
:101E100059F56C0142E0C40ED11CCA14DB0420F158
:101E2000AC014A195B09DA011296159780F06282BB
:101E3000738251834083D9016D937C93E114F10443
:101E400071F0D7011396FC93EE9312978ECF2296E2
:101E50008C0F9D1FF90191838083F301EFCFF093E5
:101E6000DD02E093DC0281CF4816590608F42C010C
:101E70007D01D3019ACFCB010E94470D7C010097D1
:101E800049F0AE01B8010E944D0FC8010E94E30D58
:101E900087016BCF10E000E068CFFB01DC0102C0DE
:101EA00001900D9241505040D8F70895FB01DC019C
:101EB00001900D920020E1F7089511E0C4EBD1E00C
:101EC00000E006C0802FFE010E942B0D2196011D0F
:0E1ED000C53BD10780E00807A9F7F894FFCFC3
:101EDE001A1B1C1D161718193738392F3435362A88
:101EEE003132332D43303D2B0000DE0280000000E6
:101EFE000000BC037C034B030000000008058E02AB
:061F0E00C0038D0200007B
:00000001FF
