:100000000C9444010C9475010C9475010C947501C9
:100010000C9475010C9475010C9475010C94750188
:100020000C9475010C9475010C9475010C94750178
:100030000C9475010C9475010C9475010C94750168
:100040000C9475010C94600A0C9475010C94750164
:100050000C9475010C9475010C9475010C948C0929
:100060000C9475010C9456090C942C090C94750190
:100070000C9475010C9475010C9475010C94750128
:100080000C94320A0C9475010C9475010C94750152
:100090000C9475010C9475010C9475010C94750108
:1000A0000C9475010C9475010C94040A0C94750160
:1000B0000C9475010C9475010C9475010C94D6097F
:1000C0000C9475010C9475010C9475010C947501D8
:1000D0000C9475010C9475010C9475010C947501C8
:1000E0000C9475010C9477030C945B060C946603D6
:1000F0000C9481030C947B030C94EF100C949C03E0
:100100000C9497030C94CE030C94A1030C94A002BE
:100110000C94FF030C9493030C94ED020C945C0676
:100120000C9437020C94A90A0C94C9040C940A028A
:100130000C946A030C946E030C9489030C9446028D
:100140000C9468020C9485030C94D2070C946203FF
:100150000C949D030C945C030C945A020C94710350
:100160000C948F0300002200250028002B002E0095
:100170003100340002010000050108010B010000FC
:1001800020002300260029002C002F00320000014F
:10019000000003010601090100000A0B02090C0D11
:1001A0000E0807030401000000000000000000002A
:1001B000000000000000000000000000000000003F
:1001C00000000000121110000000000000000000FC
:1001D000000000000000000000000000000000001F
:1001E0002100240027002A002D00300033000101E7
:1001F0000000040107010A01010210202008081074
:100200002040102040800201020108040201010286
:10021000040810204080804020100804020180045F
:1002200002018040201008040201080402010102BA
:1002300004081020408001020408102040800505B9
:100240000505070508080808020202020A0A08084C
:10025000040404040101010101010101030303037A
:1002600003030303040707070C0C0C0C0C0C0C0C09
:100270000202020206060606060606060B0B0B0B1A
:100280000B0B0B0BA90AEF1011241FBECFEFD1E20D
:10029000DEBFCDBF00E00CBF14E0A0E0B2E0E6E2BC
:1002A000FCE200E00BBF02C007900D92A435B1073D
:1002B000D9F726E0A4E5B4E001C01D92A633B20749
:1002C000E1F711E0C3E4D1E000E006C021970109A5
:1002D000802FFE010E94E313C234D10780E008079B
:1002E000A9F70E94730B0C9401160C94000096E081
:1002F000899FD0011124AD53BA4F90967C936E9391
:100300005F9791E091969C939197E0913006F091E0
:10031000310690912F06992339F0309751F08111D1
:1003200008C08091DF051994309719F05C968C9184
:10033000FACF0895CF92DF92EF92FF920F931F931F
:1003400096E0899FF0011124ED53FA4F11A2278DF9
:1003500030A12130310551F178F02230310509F416
:1003600051C02330310509F452C01F910F91FF9005
:10037000EF90DF90CF9008956623B9F361E070E0CD
:100380000E9477012FB7F89480916B0490916C04D0
:10039000A0916D04B0916E042FBF80931B069093C3
:1003A0001C06A0931D06B0931E06DFCF9FB7F894DE
:1003B000C0906B04D0906C04E0906D04F0906E04DB
:1003C0009FBF00911B0610911C0620911D063091C5
:1003D0001E06C01AD10AE20AF30A00912D061091F6
:1003E0002E0630E020E00C151D052E053F0550F4CB
:1003F00062E070E01F910F91FF90EF90DF90CF903F
:100400000C9477016111B1CF63E070E0F3CF70E03D
:1004100060E0F0CFAF92BF92CF92DF92EF92FF9267
:100420000F931F93CF93DF936C017B018B01040F1C
:10043000151FEB015E01AE18BF08C017D10759F0B8
:100440006991D601ED91FC910190F081E02DC601FA
:100450001995892B79F7C501DF91CF911F910F91E4
:10046000FF90EF90DF90CF90BF90AF900895FC0188
:10047000538D448D252F30E0842F90E0821B930B09
:10048000541710F0CF96089501970895FC01918DAF
:10049000828D981761F0A28DAE0FBF2FB11D5D96B2
:1004A0008C91928D9F5F9F73928F90E008958FEF54
:1004B0009FEF0895FC01918D828D981731F0828D08
:1004C000E80FF11D858D90E008958FEF9FEF08955F
:1004D000FC01918D228D892F90E0805C9F4F821BC3
:1004E00091098F73992708958FEF94E00E94680215
:1004F00021E0892B09F420E0822F0895FC01A48DCE
:10050000A80FB92FB11DA35ABF4F2C91848D90E035
:1005100001968F739927848FA689B7892C93A08918
:10052000B1898C91837080648C93938D848D9813A2
:1005300006C00288F389E02D80818F7D8083089535
:10054000EF92FF920F931F93CF93DF93EC0181E023
:10055000888F9B8D8C8D98131AC0E889F9898081CA
:1005600085FF15C09FB7F894EE89FF896083E889FD
:10057000F98980818370806480839FBF81E090E0EF
:10058000DF91CF911F910F91FF90EF900895F62E7C
:100590000B8D10E00F5F1F4F0F731127E02E8C8D16
:1005A0008E110CC00FB607FCFACFE889F98980815B
:1005B00085FFF5CFCE010E947E02F1CFEB8DEC0FCF
:1005C000FD2FF11DE35AFF4FF0829FB7F8940B8F78
:1005D000EA89FB8980818062CFCFCF93DF93EC01E2
:1005E000888D8823B9F0AA89BB89E889F9898C911B
:1005F00085FD03C0808186FD0DC00FB607FCF7CFD7
:100600008C9185FFF2CF808185FFEDCFCE010E94D6
:100610007E02E9CFDF91CF91089580E090E0892BB1
:1006200029F00E94740281110E94000080E090E095
:10063000892B49F080E090E0892B29F00E9400008E
:1006400081110E94000080E090E0892B49F080E059
:1006500090E0892B29F00E94000081110E94000087
:1006600080E090E0892B49F080E090E0892B29F030
:100670000E94000081110C94000008958150823185
:1006800008F05AC0E82FF0E08827E65BFC4F8F4F58
:100690000C94E3136A036E035C03620366039C031A
:1006A000710377037B038103850389038F0393031E
:1006B0009C0397039D03A103809180008F77809313
:1006C00080000895809180008F7DF9CF8091800017
:1006D000877FF5CF84B58F7784BD089584B58F7DEE
:1006E000FBCF8091B0008F778093B0000895809108
:1006F000B0008F7DF9CF809190008F77809390002C
:100700000895809190008F7DF9CF80919000877F30
:10071000F5CF8091A0008F778093A00008958091FD
:10072000A0008F7DF9CF8091A000877FF5CF8091C9
:1007300020018F77809320010895809120018F7D83
:10074000F9CF80912001877FF5CFCF93DF93282FBA
:1007500030E0F901E856FE4F8491F901E850FE4F70
:10076000D491F901E25CFD4FC491CC23A1F0811139
:100770000E943E03EC2FF0E0EE0FFF1FE258FE4F09
:10078000A591B491EC91ED2381E090E009F480E033
:10079000DF91CF91089580E090E0FACF862F0C94FE
:1007A000A5031F93CF93DF93282F30E0F901E8567C
:1007B000FE4F8491F901E850FE4FD491F901E25CBB
:1007C000FD4FC491CC23A9F0162F81110E943E0346
:1007D000EC2FF0E0EE0FFF1FEC59FE4FA591B49106
:1007E0008FB7F894EC91111108C0D095DE23DC93FB
:1007F0008FBFDF91CF911F910895DE2BF8CF862F09
:10080000642F0C94D103CF93DF9390E0FC01E85068
:10081000FE4F2491825C9D4FFC0184918823C9F096
:1008200090E0880F991FFC01E252FE4FA591B49110
:10083000FC01EC59FE4FC591D49161110DC09FB7D9
:10084000F8948C91209582238C9388812823288387
:100850009FBFDF91CF910895623051F49FB7F89414
:100860003C91822F809583238C93E8812E2BEFCFB0
:100870008FB7F894EC912E2B2C938FBFEACF1F9358
:10088000CF93DF93EC01162F8881803308F050C09E
:1008900061E0812F0E9403048881282F30E0F90154
:1008A000EE0FFF1FE20FF31FE159FB4F1F73608133
:1008B000607C612B60839EE8998394E69A832CE0A8
:1008C000622F0E94D713829FB001112430E020E0F4
:1008D000AB01420F531FFA01EE0FFF1FE40FF51F8C
:1008E000E159FB4F908196FD16C02F5F3F4F2C3092
:1008F000310571F7813009F51092800082E0809314
:1009000081001092850010928400B19A80916F004E
:10091000826080936F00E8818E2F90E0FC01EE0FE3
:10092000FF1FE80FF91FE159FB4F8081806480832E
:100930008881DF91CF911F910895823061F41092E8
:10094000900080939100109295001092940088BBC3
:1009500080937100E0CF833069F41092A00082E0B0
:100960008093A1001092A5001092A40089BB8093EF
:100970007200D1CF8111CFCF1092200182E08093FD
:10098000210110922501109224018ABB80937300EB
:10099000C2CF862F642F0C9403043FB7F894809144
:1009A0005A0490915B04A0915C04B0915D0426B55B
:1009B000A89B05C02F3F19F00196A11DB11D3FBF97
:1009C000BA2FA92F982F8827BC01CD01620F711D66
:1009D000811D911D42E0660F771F881F991F4A9560
:1009E000D1F708958F929F92AF92BF92CF92DF92EC
:1009F000EF92FF926B017C010E94CD044B015C01E0
:100A0000C114D104E104F104B9F00E94CD046819C5
:100A100079098A099B09683E73408105910580F335
:100A200021E0C21AD108E108F10888EE880E83E0BF
:100A3000981EA11CB11CE4CFFF90EF90DF90CF90E7
:100A4000BF90AF909F908F900895CF92DF92EF92DA
:100A5000FF92CF93DF93EC01603282E07807CCF510
:100A6000653B710514F064EB70E0898128E830E0A3
:100A7000281B310987FD3395220F331F220F331FA7
:100A80006901330FEE08FF088A8128E532E0281B50
:100A9000310987FD3395220F331F220F331F032E99
:100AA000000C440B550B2C193D094E095F09DB0165
:100AB00077FF02C0B0E0A0E00E94891224EB30E092
:100AC00040E050E00E945F12C20ED31EE41EF51EED
:100AD000B601E881E03370F5298188E890E0821B57
:100AE000910927FD9395880F991F880F991F681703
:100AF00079077CF02A8188E592E0821B910927FD25
:100B00009395880F991F880F991F681779070CF420
:100B1000CB010297880F991F4FB7F8942E2F30E022
:100B2000F901EE0FFF1FE20FF31FE159FB4F928314
:100B300081834FBFDF91CF91FF90EF90DF90CF90F7
:100B40000895AF92BF92CF92DF92EF92FF920F93F0
:100B50001F93CF93DF936B017A01EC01CC5ADB4FEB
:100B600028813CE0389F8001399F100D1124A0900E
:100B70005804B12C27FF1FC0FB011182108288810D
:100B80008F5F888388819801280F311D87FD3A95F2
:100B9000F6012A153B051CF488818C30C4F1808154
:100BA0009181049680349C4908F473C0F6018081D9
:100BB0009181049670C088819801280F311D87FDAE
:100BC0003A952A153B05DCF68881A801480F511D8E
:100BD00087FD5A95FA01EE0FFF1FE40FF51FE1594B
:100BE000FB4F808186FFCBCF8881F801E80FF11D94
:100BF00087FDFA95CF01EE0FFF1FE80FF91FE159AE
:100C0000FB4F808160E08F730E94D103B8CF808159
:100C100091812881A801420F511D27FD5A959A0103
:100C2000FA01EE0FFF1FE20FF31FE159FB4F218185
:100C30003281820F931FF70191838083888198010D
:100C4000280F311D87FD3A95F901EE0FFF1FE20FC6
:100C5000F31FE159FB4F808186FF22C08881080F76
:100C6000111D87FD1A95F801EE0FFF1FE00FF11F10
:100C7000E159FB4F808161E08F73DF91CF911F912C
:100C80000F91FF90EF90DF90CF90BF90AF900C94BA
:100C9000D10380E49CE9F701918380838FEF8883FF
:100CA000DF91CF911F910F91FF90EF90DF90CF9048
:100CB000BF90AF900895089590E080E00895CF939D
:100CC000DF93D82FC62F60E08C2F0E94D10364E6FB
:100CD00070E080E090E00E94F204DEBD00000DB400
:100CE00007FEFDCF8EB564E670E080E090E00E94E4
:100CF000F20461E08C2FDF91CF910C94D103CF935C
:100D0000DF93EC0160E08E810E94D10361E08E816F
:100D10000E94D10360E08E810E94D1038BE891E0B4
:100D20000197F1F7DF91CF910895CF92DF92EF9283
:100D3000FF920F931F93CF93DF936C017C0187E0A9
:100D4000E80EF11CD0E0C0E0062F10E0B8010C2E38
:100D500002C0759567950A94E2F76170F701819179
:100D60007F010E94D1032196C430D10579F7C601D5
:100D7000DF91CF911F910F91FF90EF90DF90CF9077
:100D80000C947F06CF92DF92EF92FF920F931F9306
:100D9000CF93DF93EC01F62E642F8C810E94D10358
:100DA0008D818F3F19F060E00E94D1030F2D10E07C
:100DB0008F8584FF25C06E0187E0C80ED11CF12C01
:100DC000E12CB8010E2C02C0759567950A94E2F7E4
:100DD0006170F60181916F010E94D103FFEFEF1A5C
:100DE000FF0A88E0E816F10461F7CE01DF91CF91A8
:100DF0001F910F91FF90EF90DF90CF900C947F06A2
:100E0000B80184E0759567958A95E1F7CE010E9457
:100E100095066F2DCE01DF91CF911F910F91FF901D
:100E2000EF90DF90CF900C94950640E0682F85EA14
:100E300095E00C94C20681E00E9415078BE39FE1C8
:100E40000197F1F70895CF93DF93823029F49091C1
:100E5000B40598609093B4058093B8051092B905D5
:100E600080E48093BA0580E18093BB0580E58093A0
:100E7000BC0561E08091A9050E9403048091AA0548
:100E80008F3F19F061E00E94030461E08091AB059F
:100E90000E940304C5EAD5E09E01255A35408091A1
:100EA000B40584FD0BC084E090E021962817390733
:100EB00044F461E08E810E940304EECF88E090E06C
:100EC000F4CF8BE39DE00197F1F760E08091A905F5
:100ED0000E94D10360E08091AB050E94D103809114
:100EE000AA058F3F19F060E00E94D1038091B405FC
:100EF00084FD34C063E085EA95E00E949506CBE46A
:100F0000D6E4CE010197F1F763E085EA95E00E940F
:100F100095062197F1F763E085EA95E00E94950632
:100F200083E592E00197F1F762E085EA95E00E949F
:100F300095068091B40580620E94150784E0809335
:100F4000B5058CE00E9415070E941B0782E0809384
:100F5000B60586E0DF91CF910C94150780620E9460
:100F600015078BE496E40197F1F78091B405806250
:100F70000E94150783E592E00197F1F78091B4058F
:100F800080620E941507D5CF9091B805891710F09F
:100F90008FEF890FE82FF0E0EB55FA4F84898068D6
:100FA0000C94150741E00E94C20681E090E008958C
:100FB000FB0101900020E9F73197AF01461B570B69
:100FC000DC01ED91FC910280F381E02D1994CF9327
:100FD000DF93BC018FEF94E00E94D807EC0168E436
:100FE00072E08FEF94E00E94D8078C0F9D1FDF9175
:100FF000CF910895CF93DF93FC01448155816081A7
:1010000071818FEF94E00E940A02EC0168E472E0C3
:101010008FEF94E00E94D8078C0F9D1FDF91CF9136
:1010200008950F931F93CF93DF93EC0188819981EB
:10103000009759F02A813B812617370730F081E06D
:10104000DF91CF911F910F9108958B016F5F7F4FBB
:101050000E941015009759F0998388831B830A8397
:101060002C813D81232B59F7FC011082E8CF80E0D1
:10107000E7CFEF92FF920F931F93CF93DF9361150A
:10108000710541F480E0DF91CF911F910F91FF90A6
:10109000EF90089541155105B1F07B01EC010C81F1
:1010A0001D81040F151FB8010E941108882351F3F8
:1010B000288139818C819D81B701820F931F0E9405
:1010C000FA151D830C8381E0DECFCF93DF93EC0113
:1010D00088819981009711F00E94871419821882E3
:1010E0001D821C821B821A82DF91CF910895CF93BB
:1010F000DF93EC0142E050E06BE472E00E943908BB
:10110000811103C0CE010E946508CE01DF91CF910D
:101110000895EF92FF920F931F93CF93DF938C016B
:101120007B01EB0109900020E9F72197C61BD70B43
:10113000BE010E941108811109C0C801DF91CF9141
:101140001F910F91FF90EF900C946508F801D583E3
:10115000C483B70180819181DF91CF911F910F915D
:10116000FF90EF900C94FA150F931F93CF93DF939A
:10117000CDB7DEB762970FB6F894DEBF0FBECDBF16
:101180008C01CB01F8011182108213821282158228
:1011900014824AE0BE016F5F7F4F0E941A11BE01A8
:1011A0006F5F7F4FC8010E94890862960FB6F8945E
:1011B000DEBF0FBECDBFDF91CF911F910F9108957C
:1011C000CF93DF93EC01FB014481558160817181F4
:1011D0000E943908811103C0CE010E946508CE012A
:1011E000DF91CF910895EF92FF920F931F93CF93CA
:1011F000DF93EC017B01198218821B821A821D8207
:101200001C82FB0101900020E9F731978F01061B3A
:10121000170BB8010E941108811109C0CE01DF919E
:10122000CF911F910F91FF90EF900C9465081D8353
:101230000C83B70188819981DF91CF911F910F9124
:10124000FF90EF900C94FA15FC018081918100973A
:1012500011F00C94871408951F920F920FB60F92FD
:1012600011240BB60F922F933F934F935F936F937D
:101270007F938F939F93AF93BF93EF93FF938FEFE2
:1012800094E00E947E02FF91EF91BF91AF919F91F8
:101290008F917F916F915F914F913F912F910F901F
:1012A0000BBE0F900FBE0F901F9018951F920F92BC
:1012B0000FB60F9211240BB60F922F938F939F931B
:1012C000EF93FF93E0910F05F09110058081E0917D
:1012D0001505F091160582FD1DC0908180911805BD
:1012E0008F5F8F7320911905821741F0E0911805E7
:1012F000F0E0E150FB4F958F80931805FF91EF913F
:101300009F918F912F910F900BBE0F900FBE0F905A
:101310001F9018958081F2CF1F920F920FB60F92F7
:1013200011242F933F938F939F93AF93BF938091FB
:101330006B0490916C04A0916D04B0916E04309197
:10134000590423E0230F2D3758F50196A11DB11D37
:101350002093590480936B0490936C04A0936D04C4
:10136000B0936E0480915A0490915B04A0915C0448
:10137000B0915D040196A11DB11D80935A04909314
:101380005B04A0935C04B0935D04BF91AF919F9107
:101390008F913F912F910F900FBE0F901F90189536
:1013A00026E8230F0296A11DB11DD2CF1F920F92E6
:1013B0000FB60F9211240BB60F922F933F934F93BA
:1013C0005F936F937F938F939F93AF93BF93EF93AD
:1013D000FF9348E251E064E271E090E080E00E9417
:1013E000A105FF91EF91BF91AF919F918F917F9157
:1013F0006F915F914F913F912F910F900BBE0F9086
:101400000FBE0F901F9018951F920F920FB60F925C
:1014100011240BB60F922F933F934F935F936F93CB
:101420007F938F939F93AF93BF93EF93FF9348EA7C
:1014300050E064EA70E083E090E00E94A105FF9133
:10144000EF91BF91AF919F918F917F916F915F913C
:101450004F913F912F910F900BBE0F900FBE0F90A9
:101460001F9018951F920F920FB60F9211240BB672
:101470000F922F933F934F935F936F937F938F932D
:101480009F93AF93BF93EF93FF9348E950E064E9D4
:1014900070E082E090E00E94A105FF91EF91BF9182
:1014A000AF919F918F917F916F915F914F913F91FC
:1014B0002F910F900BBE0F900FBE0F901F9018959D
:1014C0001F920F920FB60F9211240BB60F922F930B
:1014D0003F934F935F936F937F938F939F93AF93BC
:1014E000BF93EF93FF9348E850E064E870E081E039
:1014F00090E00E94A105FF91EF91BF91AF919F9164
:101500008F917F916F915F914F913F912F910F90AC
:101510000BBE0F900FBE0F901F901895FC0190917D
:101520005804903398F481E0890F80935804908395
:10153000892F90E0FC01EE0FFF1FE80FF91FE15922
:10154000FB4F88EB9BE09283818308958FEF80832C
:101550000895109202051092010588EE93E0A0E034
:10156000B0E08093030590930405A0930505B09324
:10157000060584E292E0909300058093FF0485ECD9
:1015800090E090930C0580930B0584EC90E0909391
:101590000E0580930D0580EC90E0909310058093EC
:1015A0000F0581EC90E0909312058093110582EC79
:1015B00090E0909314058093130586EC90E090934F
:1015C00016058093150510921805109219051092B2
:1015D0001A0510921B051092C5051092C9051092AC
:1015E000C8051092CA0582E492E09093C4058093E6
:1015F000C305EFEDF5E01082148213821582369652
:1016000086E0EB31F807B9F786E092E09093260682
:101610008093250682E092E0909328068093270627
:1016200084E08093290680932A068AE092E09093D2
:101630002406809323068AE090E090932C06809302
:101640002B0684EF91E090932E0680932D06109246
:1016500031061092300610921F061092200610924A
:1016600021061092220610922F066AE472E08DEB9A
:1016700095E00E94F3081092A8051092A70586E352
:1016800092E09093A6058093A5058AE08093A90532
:101690008FEF8093AA0589E08093AB0588E0809363
:1016A000AC0587E08093AD0586E08093AE0585E0CC
:1016B0008093AF051092B0051092B1051092B2055B
:1016C0001092B3051092B40581E00E94230782EACC
:1016D00095E00E948E0A8FE995E00E948E0A8CE9BF
:1016E00095E00C948E0ACF93DF93CDB7DEB72C979D
:1016F0000FB6F894DEBF0FBECDBF789484B582607C
:1017000084BD84B5816084BD85B5826085BD85B5A5
:10171000816085BD80916E00816080936E00109223
:10172000810080918100826080938100809181009E
:10173000816080938100809180008160809380002F
:101740008091B10084608093B1008091B00081608D
:101750008093B0008091910082608093910080918D
:1017600091008160809391008091900081608093CE
:1017700090008091A10082608093A1008091A100DF
:1017800081608093A1008091A00081608093A0007F
:1017900080912101826080932101809121018160EB
:1017A00080932101809120018160809320018091AC
:1017B0007A00846080937A0080917A0082608093BE
:1017C0007A0080917A00816080937A0080917A001B
:1017D000806880937A001092C100E0910F05F0912B
:1017E000100582E08083E0910B05F0910C051082DA
:1017F000E0910D05F0910E058FEC80831092170596
:10180000E0911305F091140586E08083E0911105C5
:10181000F0911205808180618083E0911105F09143
:101820001205808188608083E0911105F091120596
:10183000808180688083E0911105F091120580819C
:101840008F7D80838EE492E00E94E70782E00E9411
:1018500023070E941B0780E00E94C40760910002DA
:1018600070910102CE0101960E94B40864E772E013
:10187000CE0107960E94F308BE016F5F7F4FCE0135
:1018800007960E94E0080E947708FC014481558178
:101890006081718185EA95E00E940A02CE01079677
:1018A0000E942409CE0101960E94240981E00E9431
:1018B000C40761E772E085EA95E00E94D8078EE1EF
:1018C00090E090936A048093690483E290E090939F
:1018D00068048093670485E290E0909366048093A7
:1018E00065046DE070E082EA95E00E943F046CE0E0
:1018F00070E08FE995E00E943F046BE070E08CE9B6
:1019000095E00E943F0461E08DE20E94030461E0E3
:101910008EE20E94030461E08DE20E94D10361E047
:101920008EE20E94D1031FB7F89480915E0481116A
:1019300027C0E3E7F2E08491EDE2F2E09491E82F32
:10194000F0E0EE0FFF1FE252FE4FA591B491EC9133
:10195000E92321F461E085E30E94D10361E085E39E
:101960000E9403048CB580618CBD8CB580648CBDF5
:1019700061E084E30E94030461E083E30E940304C6
:1019800080915E048F5F80935E041FBF8CB58C7F57
:1019900081608CBD8DB581608DBD412C512C320193
:1019A00043946091690470916A04072E000C880BBF
:1019B000990B0E9466116B017C0160915F0470912C
:1019C0006004072E000C880B990B0E94661120E022
:1019D00030E044E353E40E942F1320E030E040E481
:1019E00050E40E94A111A70196010E94A111A70134
:1019F00096010E94C3120E94A1136B016A31710506
:101A00000CF083C170936A04609369046091690467
:101A100070916A04CE0101960E94B4086EE772E0EC
:101A2000CE0107960E94F308BE016F5F7F4FCE0183
:101A300007960E94E0080E94FA07CE0107960E94CE
:101A40002409CE0101960E94240980916904909195
:101A50006A048C3991050CF482C187E992E00E94F6
:101A6000E7071092600410925F0460915F04709128
:101A7000600482EA95E00E942505609167047091F8
:101A80006804072E000C880B990B0E9466116B01ED
:101A90007C016091610470916204072E000C880B38
:101AA000990B0E94661120E030E044E353E40E9469
:101AB0002F1320E030E040E450E40E94A111A70180
:101AC00096010E94A111A70196010E94C3120E94D3
:101AD000A1136B019AE1C916D1040CF054C1D09244
:101AE0006804C09267046091670470916804CE0135
:101AF00001960E94B40869E073E0CE0107960E9447
:101B0000F308BE016F5F7F4FCE0107960E94E00889
:101B10000E94FA07CE0107960E942409CE01019681
:101B20000E94240980916704909168048C39910582
:101B30000CF454C182E293E00E94E7071092620421
:101B40001092610460916104709162048FE995E0E4
:101B50000E9425056091650470916604072E000CB3
:101B6000880B990B0E9466116B017C0160916304E4
:101B700070916404072E000C880B990B0E9466116B
:101B800020E030E044E353E40E942F1320E030E0F3
:101B900040E450E40E94A111A70196010E94A11106
:101BA000A70196010E94C3120E94A1136B019AE142
:101BB000C916D1040CF026C1D0926604C092650407
:101BC0006091650470916604CE0101960E94B4088C
:101BD00064E973E0CE0107960E94F308BE016F5FCF
:101BE0007F4FCE0107960E94E0080E94FA07CE01BF
:101BF00007960E942409CE0101960E942409809133
:101C00006504909166048C3991050CF426C18DEA27
:101C100093E00E94E70710926404109263046091BD
:101C20006304709164048CE995E00E94250580911D
:101C3000690490916A048C3991057CF48091670461
:101C4000909168048C39910544F4809165049091D9
:101C500066048C3991050CF414C18FE194E00E9464
:101C6000E7076DE270E081E090E00E945F0669E1C5
:101C700070E080E090E00E94F20484E394E00E942F
:101C8000E7076EE270E081E090E00E945F0669E1A4
:101C900070E080E090E00E94F20491E090932F06C3
:101CA0008FB7F89440916B0450916C0460916D046F
:101CB00070916E048FBF80911F0690912006A091B5
:101CC0002106B0912206481B590B6A0B7B0B8091B1
:101CD0002B0690912C06B0E0A0E084179507A6078C
:101CE000B70708F0F2C110E080912906181708F034
:101CF000D9C0E0912506F0912606E10FF11D62E0C2
:101D000080810E9403041F5FEFCF072E000C880B19
:101D1000990B0E9466114B015C0159E1C51AD1086B
:101D2000B601DD0C880B990B0E94661120E030E0B3
:101D300048EC52E40E942F1320E030E040EF51E4E1
:101D40000E94A1119B01AC01C501B4010E94C21205
:101D50000E94A11370936A046093690457CE83EDC7
:101D600092E00E94E70780915F04909160048D9655
:101D7000853B91052CF49093600480935F0475CEAD
:101D800084EB90E0F8CFB6010D2C000C880B990B7A
:101D90000E9466114B015C01E9E1CE1AD108B6013F
:101DA000DD0C880B990B0E94661120E030E048ECB6
:101DB00052E40E942F1320E030E040EF51E40E94F3
:101DC000A1119B01AC01C501B4010E94C2120E9485
:101DD000A113709368046093670485CE8EE593E049
:101DE0000E94E70780916104909162048D96853B83
:101DF00091052CF49093620480936104A3CE84EB4C
:101E000090E0F8CFB6010D2C000C880B990B0E94C6
:101E100066114B015C01E9E1CE1AD108B601DD0C77
:101E2000880B990B0E94661120E030E048EC52E4E8
:101E30000E942F1320E030E040EF51E40E94A111F6
:101E40009B01AC01C501B4010E94C2120E94A11302
:101E50007093660460936504B3CE89EE93E00E94AC
:101E6000E70780916304909164048D96853B91050A
:101E70002CF49093640480936304D1CE84EB90E0BF
:101E8000F8CF6DE270E090E080E00E945F0669E1CB
:101E900070E080E090E00E94F2046EE270E090E07A
:101EA00080E0F3CE312C80912A06381608F061C00C
:101EB000E32CF12CE0912706F0912806EE0DFF1D92
:101EC00061E080810E940304E0912706F0912806DA
:101ED000EE0DFF1D60E080810E94D103D301C2019D
:101EE000032C04C0880F991FAA1FBB1F0A94D2F7A6
:101EF0004C016C01C094D094212C809129062816A5
:101F000008F5022D10E0E0912506F0912606E00F7D
:101F1000F11F80810E94A5030C5F1F4F000F111F4E
:101F2000F801ED53FA4F892B41F480819181882982
:101F30009929918380832394E0CF808191818C21A2
:101F40009D21F7CFE0912706F0912806EE0DFF1DA9
:101F500061E080810E94D10380912706909128063C
:101F6000E80EF91E60E0F70180810E9403043394BB
:101F70009ACF03EC15E0F801878D90A1892B31F4FD
:101F8000148E8FEF9FEF968F858F11A2369695E076
:101F9000EF3FF90789F7D12C80912906D81608F070
:101FA00053C0C12CED2CF12CEE0CFF1CF701E553B6
:101FB000FA4F7F0120912A06C21608F043C0F701AC
:101FC000608171810C2C02C0769567950A94E2F7C6
:101FD000D29E900111242C0D311DE3ECF5E080E040
:101FE000458D568D2417350709F4F7C08F5F369657
:101FF0008A30B1F760FF24C0E3ECF5E090E080E0C8
:10200000448D411118C0E0912306F0912406E20F9F
:10201000F31F408156E0589FF001599FF00D1124A5
:10202000ED53FA4F448F368F258F10A2178E61E043
:102030000E949A0105C0019636968A30910501F7F3
:10204000C394B8CFD394A8CF80E0F80191A19111A7
:10205000892F0A5F1F4FF5E00F3F1F07B1F79FB7AA
:10206000F89440916B0450916C0460916D047091F0
:102070006E049FBF40931F06509320066093210675
:1020800070932206882309F18091E4058823E9F002
:102090008091E2059091E3050197B9F41091DF0575
:1020A000111116C068E472E08FEF94E00E94D80727
:1020B0006091000270910102072E000C880B990BB1
:1020C0000E94F2040E940D036CCC10922F06EACFFE
:1020D0001A8219821C821B821E821D821F8318860F
:1020E000BE01695F7F4FCE0101960E94890869E4B5
:1020F00074E0CE0107960E94F308BE016F5F7F4F28
:10210000CE0107960E94E0080E94FA07CE010796CA
:102110000E942409CE0101960E9424091D3309F072
:102120004AC08091BD059091BE05C12CD12C76018D
:10213000009719F00E94F3106B01D0920102C09237
:1021400000026AE472E08DEB95E00E9489080E942B
:102150001B0780E00E94C407B601CE0101960E94D1
:10216000B40864E772E0CE0107960E94F308BE014E
:102170006F5F7F4FCE0107960E94E0080E947708AC
:10218000FC01448155816081718185EA95E00E945E
:102190000A02CE0107960E942409CE0101960E94F0
:1021A000240981E00E94C40761E772E085EA95E0B6
:1021B0000E94D80777CF19831A8241E050E0BE0110
:1021C0006F5F7F4F8DEB95E00E94390841E0612FF2
:1021D00085EA95E00E94C20665CF617029CF8DEB3C
:1021E00095E00C9424091F93FC0199278827BC01D2
:1021F000E89411911032E9F3193010F01E30C8F351
:102200001B3251F01D3249F4689406C00E9425111A
:10221000610F711D811D911D119110531A30B0F382
:102220003EF490958095709561957F4F8F4F9F4FAD
:102230001F910895BB274A3031F4992322F4BDE25F
:10224000909581959F4F0C943B11592F482F372F14
:10225000262F660F771F881F991F660F771F881F0D
:10226000991F620F731F841F951F660F771F881FAA
:10227000991F0895BB27FB015527AA27880F991F8F
:10228000AA1FA41710F0A41B83955051B9F7A05DA5
:10229000AA3308F0A95DA193009779F7B111B19322
:1022A0001192CB010C945411DC01FC01672F719148
:1022B0007723E1F7329704C07C916D93708362912C
:1022C000AE17BF07C8F30895E89409C097FB3EF422
:1022D00090958095709561957F4F8F4F9F4F992373
:1022E000A9F0F92F96E9BB279395F69587957795F1
:1022F0006795B795F111F8CFFAF4BB0F11F460FFB1
:102300001BC06F5F7F4F8F4F9F4F16C0882311F008
:1023100096E911C0772321F09EE8872F762F05C01C
:10232000662371F096E8862F70E060E02AF09A95B7
:10233000660F771F881FDAF7880F9695879597F9AC
:1023400008950E94B4110C9425120E94171238F0BF
:102350000E941E1220F0952311F00C940E120C9482
:10236000141211240C9459120E94361270F3959F86
:10237000C1F3950F50E0551F629FF001729FBB277C
:10238000F00DB11D639FAA27F00DB11DAA1F649F18
:102390006627B00DA11D661F829F2227B00DA11DCB
:1023A000621F739FB00DA11D621F839FA00D611D51
:1023B000221F749F3327A00D611D231F849F600D72
:1023C000211D822F762F6A2F11249F5750409AF09B
:1023D000F1F088234AF0EE0FFF1FBB1F661F771F27
:1023E000881F91505040A9F79E3F510580F00C94F2
:1023F0000E120C9459125F3FE4F3983ED4F3869585
:1024000077956795B795F795E7959F5FC1F7FE2B91
:10241000880F911D9695879597F9089597F99F676D
:1024200080E870E060E008959FEF80EC089500245C
:102430000A941616170618060906089500240A9429
:1024400012161306140605060895092E0394000CAF
:1024500011F4882352F0BB0F40F4BF2B11F460FF3E
:1024600004C06F5F7F4F8F4F9F4F089557FD905867
:10247000440F551F59F05F3F71F04795880F97FB48
:10248000991F61F09F3F79F0879508951216130602
:102490001406551FF2CF4695F1DF08C01616170631
:1024A0001806991FF1CF8695710561050894089566
:1024B000E894BB2766277727CB0197F90895052E67
:1024C00097FB1EF400940E94761257FD07D00E94DD
:1024D000911207FC03D04EF40C947612509540955F
:1024E000309521953F4F4F4F5F4F089590958095C0
:1024F000709561957F4F8F4F9F4F08950E94B31243
:10250000A59F900DB49F900DA49F800D911D112447
:102510000895B7FF0C947E120E947E12821B930BCB
:102520000895A1E21A2EAA1BBB1BFD010DC0AA1F14
:10253000BB1FEE1FFF1FA217B307E407F50720F02C
:10254000A21BB30BE40BF50B661F771F881F991FA7
:102550001A9469F760957095809590959B01AC01F0
:10256000BD01CF010895A29FB001B39FC001A39FF9
:10257000700D811D1124911DB29F700D811D1124BC
:10258000911D08955058BB27AA270E94DA120C9477
:1025900025120E94171238F00E941E1220F039F402
:1025A0009F3F19F426F40C9414120EF4E095E7FB07
:1025B0000C940E12E92F0E94361258F3BA176207D4
:1025C00073078407950720F079F4A6F50C94581248
:1025D0000EF4E0950B2EBA2FA02D0B01B90190013E
:1025E0000C01CA01A0011124FF27591B99F0593F82
:1025F00050F4503E68F11A16F040A22F232F342FCA
:102600004427585FF3CF469537952795A795F04017
:102610005395C9F77EF41F16BA0B620B730B840B2C
:10262000BAF09150A1F0FF0FBB1F661F771F881FE4
:10263000C2F70EC0BA0F621F731F841F48F487953C
:1026400077956795B795F7959E3F08F0B0CF93952E
:10265000880F08F09927EE0F9795879508950E94A7
:1026600043130C9425120E941E1258F00E94171258
:1026700040F029F45F3F29F00C940E1251110C9494
:1026800059120C9414120E94361268F39923B1F374
:10269000552391F3951B550BBB27AA276217730788
:1026A000840738F09F5F5F4F220F331F441FAA1F1C
:1026B000A9F335D00E2E3AF0E0E832D091505040D8
:1026C000E695001CCAF72BD0FE2F29D0660F771F86
:1026D000881FBB1F261737074807AB07B0E809F06C
:1026E000BB0B802DBF01FF2793585F4F3AF09E3FF1
:1026F000510578F00C940E120C9459125F3FE4F3DC
:10270000983ED4F3869577956795B795F7959F5F33
:10271000C9F7880F911D9695879597F90895E1E07F
:10272000660F771F881FBB1F621773078407BA07DE
:1027300020F0621B730B840BBA0BEE1F88F7E09539
:1027400008950E94A8136894B1110C945912089529
:102750000E943E1288F09F5798F0B92F9927B751E1
:10276000B0F0E1F0660F771F881F991F1AF0BA9535
:10277000C9F714C0B13091F00E945812B1E0089529
:102780000C945812672F782F8827B85F39F0B93F1B
:10279000CCF3869577956795B395D9F73EF49095E8
:1027A0008095709561957F4F8F4F9F4F0895991B2E
:1027B00079E004C0991F961708F0961B881F7A9538
:1027C000C9F780950895EE0FFF1F881F8BBF0790F4
:1027D000F691E02D19940F931F93CF93DF938230DE
:1027E000910510F482E090E0E0913406F091350616
:1027F00030E020E0B0E0A0E0309799F421153105F9
:1028000009F44AC0281B390B24303105D8F58A81D8
:102810009B816115710589F1FB0193838283FE0120
:1028200011C0408151810281138148175907E0F09E
:102830004817590799F4109761F012960C93129764
:1028400013961C933296CF01DF91CF911F910F9178
:1028500008950093340610933506F4CF2115310501
:1028600051F04217530738F0A901DB019A01BD016D
:10287000DF01F801C1CFEF01F9CF909335068093C6
:102880003406CDCFFE01E20FF31F819391932250C6
:10289000310939832883D7CF20913206309133060E
:1028A000232B41F420911C0230911D0230933306FA
:1028B0002093320620911A0230911B022115310516
:1028C00041F42DB73EB740911E0250911F02241BC8
:1028D000350BE0913206F0913306E217F307A0F4CE
:1028E0002E1B3F0B2817390778F0AC014E5F5F4F66
:1028F0002417350748F04E0F5F1F5093330640935F
:102900003206819391939FCFF0E0E0E09CCFCF938C
:10291000DF930097E9F0FC01329713821282A091B5
:102920003406B0913506ED0130E020E01097A1F4B7
:1029300020813181820F931F20913206309133061E
:102940002817390709F061C0F0933306E093320687
:10295000DF91CF910895EA01CE17DF07E8F54A81AC
:102960005B819E0141155105B1F7E901FB83EA83C3
:1029700049915991C40FD51FEC17FD0761F480816F
:1029800091810296840F951FE90199838883828142
:1029900093819B838A83F0E0E0E012968D919C9175
:1029A00013970097B9F52D913C911197CD0102969F
:1029B000820F931F20913206309133062817390772
:1029C00039F6309751F51092350610923406B093CF
:1029D0003306A0933206BCCFD383C283408151819A
:1029E000840F951FC817D90761F44E5F5F4F888128
:1029F0009981480F591F518340838A819B8193831A
:102A000082832115310509F0B0CFF0933506E093AC
:102A100034069ECFFD01DC01C0CF13821282D7CFD6
:102A20004F925F926F927F928F929F92AF92BF92DE
:102A3000CF92DF92EF92FF920F931F93CF93DF938A
:102A40008C01009799F4CB01DF91CF911F910F91E9
:102A5000FF90EF90DF90CF90BF90AF909F908F90BE
:102A60007F906F905F904F900C94EB13FC01E60FFA
:102A7000F71F9C0122503109E217F30708F4AEC09A
:102A8000D901CD91DC911197C617D70720F1C53038
:102A9000D10578F0CE0104978617970750F0C61B32
:102AA000D70B2297C193D1936D937C93CF010E9452
:102AB0008714C801DF91CF911F910F91FF90EF9084
:102AC000DF90CF90BF90AF909F908F907F906F904E
:102AD0005F904F9008955B01AC1ABD0A4C018C0EBB
:102AE0009D1EA0913406B0913506512C412CF12C3D
:102AF000E12C109731F580913206909133068815BC
:102B0000990509F05CC04616570608F058C0809138
:102B10001A0290911B02009741F48DB79EB7409125
:102B20001E0250911F02841B950BE817F90708F04D
:102B300055C0F0933306E0933206F9017183608348
:102B4000B8CF8D919C91119712966C901297139615
:102B50007C901397A815B90559F56C0142E0C40E95
:102B6000D11CCA14DB0420F1AC014A195B09DA015B
:102B70001296159780F06282738251834083D90147
:102B80006D937C93E114F10471F0D7011396FC93DB
:102B9000EE9312978ECF22968C0F9D1FF901918391
:102BA0008083F301EFCFF0933506E093340681CFB5
:102BB0004816590608F42C017D01D3019ACFCB01A8
:102BC0000E94EB137C01009749F0AE01B8010E940E
:102BD000F115C8010E94871487016BCF10E000E057
:102BE00068CFFB01DC0102C001900D9241505040C2
:102BF000D8F70895FB01DC0101900D920020E1F768
:102C0000089511E0C3E4D1E000E006C0802FFE018A
:102C10000E94E3132196011DC434D10780E0080708
:062C2000A9F7F894FFCFB4
:102C260032001A1B1C1D161718193738392F343560
:102C3600362A3132332D43303D2B000036068000D4
:102C460000000000A0020A023702ED0268024602F6
:102C56005A0200000000D2070A025C065B0600006A
:102C66000000C904FF03CE030D0A006D730054650E
:102C76006D706572617475726520636F6E74726FC4
:102C86006C6C6572207374617274696E672E2E2E79
:102C9600004E65774475726174696F6E3A005265CD
:102CA600616374696F6E20312054656D7065726161
:102CB600747572653A200020202020526561637485
:102CC600696F6E20312054656D706572617475721E
:102CD6006520746F6F2048696768212044656372B8
:102CE600656173696E6720536572766F20416E6702
:102CF6006C6500202020205265616374696F6E2028
:102D0600312054656D7065726174757265204F4B24
:102D16002C20496E6372656173696E672053657214
:102D2600766F20416E676C65005265616374696FEA
:102D36006E20322054656D70657261747572653AE5
:102D46002000202020205265616374696F6E203256
:102D56002054656D706572617475726520746F6F4D
:102D66002048696768212044656372656173696EEE
:102D76006720536572766F20416E676C6500202070
:102D860020205265616374696F6E20322054656D30
:102D96007065726174757265204F4B2C20496E63A5
:102DA60072656173696E6720536572766F20416E36
:102DB600676C65005265616374696F6E20332054D9
:102DC600656D70657261747572653A200020202009
:102DD600205265616374696F6E20332054656D708F
:102DE6006572617475726520746F6F2048696768D3
:102DF600212044656372656173696E67205365724D
:102E0600766F20416E676C65002020202052656138
:102E16006374696F6E20332054656D7065726174DA
:102E2600757265204F4B2C20496E6372656173691C
:102E36006E6720536572766F20416E676C6500532E
:102E4600656E64696E6720416C61726D20746F20D7
:102E56005353310053656E64696E6720416C61722D
:102E66006D20746F20535332004E6577204B657981
:042E76003A200000FE
:00000001FF
