:100000000C9428010C9459010C9459010C94590139
:100010000C9459010C9459010C9459010C945901F8
:100020000C9459010C9459010C9459010C945901E8
:100030000C9459010C9477020C9459010C945901B9
:100040000C9459010C9459010C9459010C945901C8
:100050000C9459010C9459010C9459010C94D70239
:100060000C9459010C9459010C9459010C945901A8
:100070000C9459010C9459010C9459010C94590198
:100080000C9459010C9459010C9459010C94590188
:100090000C9459010C9459010C9459010C94590178
:1000A0000C9459010C9459010C9459010C94590168
:1000B0000C9459010C9459010C9459010C94590158
:1000C0000C9459010C9459010C9459010C94590148
:1000D0000C9459010C9459010C9459010C94590138
:1000E0000C9459010C9498010C94BA010C94A2013F
:1000F0000C94A6010C947F010C94AC010C94830128
:100100000C949E010C94B4010C94B0010C948701E2
:100110000C948E010C9476070C9494010C94B90104
:100120000C94BE010C9479010C948B010000210009
:10013000240027002A002D003000330001010000B8
:10014000040107010A0100002200250028002B00FD
:100150002E003100340002010000050108010B01EE
:1001600002000020002300260029002C002F00326E
:10017000000001000003010601090105050505074E
:100180000508080808020202020A0A080804040412
:10019000040101010101010101030303030303033E
:1001A00003040707070C0C0C0C0C0C0C0C020202CD
:1001B0000206060606060606060B0B0B0B0B0B0BC0
:1001C0000B0102102020080810204010204080025F
:1001D000010201080402010102040810204080808D
:1001E0004020100804020180040201804020100811
:1001F00004020108040201010204081020408001E9
:100200000204081020408000000A0B02090C0D0EA9
:1002100008070304010000000000000000000000C7
:1002200000000000000000000000000000000000CE
:10023000000000121110000000000000000000008B
:100240000000000000000000000000000000760731
:1002500011241FBECFEFD1E2DEBFCDBF00E00CBF47
:1002600013E0A0E0B2E0EEE6F2E100E00BBF02C076
:1002700007900D92AA35B107D9F723E0AAE5B3E0BC
:1002800001C01D92A738B207E1F711E0C8E2D1E042
:1002900000E006C021970109802FFE010E9403099A
:1002A000C732D10780E00807A9F70E9421030C9408
:1002B00035090C9400008150823108F05AC0E82FB3
:1002C000F0E08827E959FE4F8F4F0C94030987010E
:1002D0008B0179017F018301B9018E01940198019D
:1002E0009E01A201A601AC01B001B901B401BA019D
:1002F000BE01809180008F77809380000895809167
:1003000080008F7DF9CF80918000877FF5CF84B505
:100310008F7784BD089584B58F7DFBCF8091B00029
:100320008F778093B00008958091B0008F7DF9CFD2
:10033000809190008F778093900008958091900035
:100340008F7DF9CF80919000877FF5CF8091A000BD
:100350008F778093A00008958091A0008F7DF9CFC2
:100360008091A000877FF5CF809120018F778093C7
:1003700020010895809120018F7DF9CF8091200187
:10038000877FF5CFCF93DF93EDE1F2E08491E7ED46
:10039000F1E0D491E1E9F1E0C491CC23A1F0811125
:1003A0000E945B01EC2FF0E0EE0FFF1FEF59FE4FB4
:1003B000A591B491EC91ED2381E090E009F480E007
:1003C000DF91CF91089580E090E0FACFCF93DF9353
:1003D00090910002891310C0E0E6F1E0E4919FEFF4
:1003E00090930002E23009F440C058F5EE2309F47E
:1003F00033C0E13009F433C0282F30E0F901E95F60
:10040000FD4F8491F901EF53FE4FD491F901E55866
:10041000FE4FC491CC2391F081110E945B01EC2F1F
:10042000F0E0EE0FFF1FEA5BFE4FA591B4918FB78E
:10043000F894EC91D095DE23DC938FBFDF91CF91C0
:100440000895E43049F110F1E530B1F69091730070
:100450009D7F90937300D0CF10926E00CDCF90917E
:100460006F009D7F90936F00C7CF909170009D7F2C
:100470009093700091E09093B0009091B100987FBC
:1004800094609093B1001092B300B6CF9091710038
:100490009D7F90937100B0CF909172009D7F90935B
:1004A0007200AACF3FB7F89480915F0390916003E8
:1004B000A0916103B091620326B5A89B05C02F3FB0
:1004C00019F00196A11DB11D3FBFBA2FA92F982F7A
:1004D0008827BC01CD01620F711D811D911D42E075
:1004E000660F771F881F991F4A95D1F708951F92AD
:1004F0000F920FB60F9211240BB60F922F933F93CA
:100500004F935F936F937F938F939F93AF93BF931B
:10051000EF93FF938091770390917803A0917903F3
:10052000B0917A03892B8A2B8B2BE1F19091660392
:10053000E0916703F091680380818927808380912F
:10054000770390917803A0917903B0917A031816FC
:1005500019061A061B069CF4809177039091780384
:10056000A0917903B0917A030197A109B109809311
:10057000770390937803A0937903B0937A03FF9164
:10058000EF91BF91AF919F918F917F916F915F910B
:100590004F913F912F910F900BBE0F900FBE0F9078
:1005A0001F901895809100020E94E601E8CF1F92EB
:1005B0000F920FB60F9211242F933F938F939F9317
:1005C000AF93BF9380915B0390915C03A0915D0317
:1005D000B0915E0330915A0323E0230F2D3758F575
:1005E0000196A11DB11D20935A0380935B03909344
:1005F0005C03A0935D03B0935E0380915F039091D1
:100600006003A0916103B09162030196A11DB11D29
:1006100080935F0390936003A0936103B0936203A0
:10062000BF91AF919F918F913F912F910F900FBEEE
:100630000F901F90189526E8230F0296A11DB11D5B
:10064000D2CFCF93DF9300D000D000D0CDB7DEB7AC
:10065000789484B5826084BD84B5816084BD85B59D
:10066000826085BD85B5816085BD80916E008160A9
:1006700080936E001092810080918100826080934F
:100680008100809181008160809381008091800051
:100690008160809380008091B10084608093B1007C
:1006A0008091B00081608093B00080919100826061
:1006B000809391008091910081608093910080915E
:1006C00090008160809390008091A100826080936F
:1006D000A1008091A10081608093A1008091A00081
:1006E00081608093A000809121018260809321012C
:1006F000809121018160809321018091200181609E
:100700008093200180917A00846080937A008091A8
:100710007A00826080937A0080917A008160809371
:100720007A0080917A00806880937A001092C100EC
:10073000E7EDF1E02491E1E9F1E084918823C9F04B
:1007400090E0880F991FFC01E45DFE4F6591749164
:10075000FC01EA5BFE4FA591B4919FB7F894FB01B1
:1007600080812095822380838C91E22FE823EC9373
:100770009FBF0E94C20190938603809385030197D7
:1007800009F0A3C341E0242E42E0342EF9E52F16F0
:10079000F3E03F0609F499C30E94C201892B09F4D2
:1007A00094C3F10122813381B90137FF04C0662768
:1007B0007727621B730B80918303909184030E94BF
:1007C000AE088B0137FF0FC0072E000C880B990B6A
:1007D0000E94B50720E030E040EC5FE30E9419087A
:1007E0000E947D078B0180917B00877F80937B0037
:1007F000F1E4F0937C0080917A00806480937A0029
:1008000080917A0086FDFCCF40917800609179005C
:10081000F101A080B180809100022801012E000C1E
:1008200066087708853029F5E0E6F1E0F491F9876C
:10083000F985F7FF91C0C301B2010E94B5072AE90B
:1008400039E949E95FE30E9419080E947D076B01BD
:10085000770FEE08FF080E9452024B015C01C114A1
:10086000D104E104F10409F024C344E0240E311C56
:100870008DCF8F3F01F785E080930002E0E6F1E045
:10088000F491F987FF3FB9F2F23009F458C120F52D
:10089000FF2309F449C0F13059F6109280001092FC
:1008A0008100809181008860809381008091810027
:1008B000816080938100E0E8F1E08491E82FF0E02E
:1008C000EE0FFF1FEA5BFE4F85919491E6ECF1E09D
:1008D00084918093690340C02985243009F473C151
:1008E00008F450C1253009F0A3CF109220011092D6
:1008F0002101809121018860809321018091210153
:10090000816080932101E0E8F1E08491E82FF0E03C
:10091000EE0FFF1FEA5BFE4F85919491E6ECF1E04C
:1009200084918093630318C014BC15BC84B58260A5
:1009300084BD85B5816085BDE0E8F1E08491E82F54
:10094000F0E0EE0FFF1FEA5BFE4F85919491E6EC1D
:10095000F1E0849180936A03E6ECF1E05491E0E8E1
:10096000F1E08491882399F090E0880F991FFC01B1
:10097000E45DFE4FA591B491FC01EA5BFE4F259129
:1009800034918FB7F8949C91592B5C938FBF762F3D
:10099000642F072E000C880B990B0E94B50720E0EE
:1009A00030E040E05BE30E9419086B017C01B50177
:1009B000BB0C880B990B0E94B5079B01AC01C701CA
:1009C000B6010E9419080E947D076D837E838F8384
:1009D00098874D815E814A01B12CA12C60E072E1C3
:1009E0008AE790E0A50194010E94E40829833A83F4
:1009F0004B835C8369017A0151E0C51AD108E10893
:100A0000F10889858D7F09F07AC18FEFC816D1046E
:100A1000E104F10409F00CF441C160E472E48FE0F8
:100A200090E0A50194010E94E40869017A0191E037
:100A3000C91AD108E108F108E985E23009F0E2C0FD
:100A400082E0FFEFCF16D104E104F10409F00CF4C9
:100A50006FC060E970ED83E090E0A50194010E9411
:100A6000E40869017A0181E0C81AD108E108F108B7
:100A700083E09FEFC916D104E104F10409F00CF4FE
:100A800057C068E478EE81E090E0A50194010E94EF
:100A9000E40869017A0191E0C91AD108E108F10876
:100AA00084E0EFEFCE16D104E104F10409F00CF478
:100AB0003FC064E274EF80E090E0A50194010E94E1
:100AC000E40869017A0181E0C81AD108E108F10857
:100AD00085E05FEFC516D104E104F10449F140F16E
:100AE00062E17AE780E090E0A50194010E94E408C9
:100AF00069017A01F1E0CF1AD108E108F10886E036
:100B00002FEFC216D104E104F10491F088F0C980FE
:100B1000DA80EB80FC808AE0F594E794D794C79460
:100B20008A95D1F781E0C81AD108E108F10887E079
:100B30009091B100987F892B8093B100B7C010923B
:100B4000B0001092B1008091B00082608093B0003C
:100B50008091B10081608093B100E0E8F1E0849180
:100B6000E82FF0E0EE0FFF1FEA5BFE4F85919491B6
:100B70009093680380936703E6ECF1E0849180939F
:100B80006603EACE1092900010929100809191003D
:100B900088608093910080919100816080939100A2
:100BA000E0E8F1E08491E82FF0E0EE0FFF1FEA5B50
:100BB000FE4F85919491E6ECF1E08491809365037A
:100BC000F3E0F987C9CE1092A0001092A1008091A5
:100BD000A10088608093A1008091A1008160809332
:100BE000A100E0E8F1E08491E82FF0E0EE0FFF1FB4
:100BF000EA5BFE4F85919491E6ECF1E0849180935D
:100C00006403AACEEFEFCE16D104E104F10409F09B
:100C10000CF473C068E478EE81E090E0A5019401E3
:100C20000E94E40869017A01F1E0CF1AD108E108D5
:100C3000F108298584E021114CCF83E04FEFC416E1
:100C4000D104E104F10471F16CF162E17AE780E032
:100C500090E0A50194010E94E40869017A0191E005
:100C6000C91AD108E108F10884E0EFEFCE16D104EB
:100C7000E104F104B9F0B0F0C980DA80EB80FC80C7
:100C80009AE0F594E794D794C7949A95D1F751E0F8
:100C9000C51AD108E108F10885E004C081E0F985B2
:100CA000F11146CF95B5987F892B85BD2FEF3FEF8A
:100CB000A901411451046104710409F048C08985F7
:100CC000823009F4D5C00CF0BCC0882309F4C1C03F
:100CD000813009F0B0CDD0928900C0928800209375
:100CE0007B0330937C0340937D0350937E0380917C
:100CF0006F00826080936F009ECD82E0D0CF91E044
:100D0000C114D10421E0E206F10484F068E478EE35
:100D100081E090E0A50194010E94E40869017A0154
:100D200081E0C81AD108E108F10893E0E985E130D3
:100D3000E1F480918100887F892B809381002FEFDF
:100D40003FEFA901411451046104710421F22D8186
:100D50003E81220F331FD8010E940B0928EE33E099
:100D600040E050E00E94C208AACFF985F33001F5B7
:100D700080919100887F892B809391002FEF3FEF26
:100D8000A901411451046104710409F7D09299003A
:100D9000C0929800209373033093740340937503BB
:100DA000509376038091710082608093710043CDEF
:100DB0002985243009F58091A100887F892B8093B3
:100DC000A1002FEF3FEFA901411451046104710408
:100DD00009F0BDCFD092A900C092A80020936F0364
:100DE00030937003409371035093720380917200AB
:100DF0008260809372001FCD4985453009F056CF3F
:100E000080912101887F892B809321012FEF3FEF73
:100E1000A901411451046104710409F098CFD092E2
:100E20002901C092280120936B0330936C034093F7
:100E30006D0350936E038091730082608093730002
:100E4000FACC9985943031F20CF4A0CF953039F377
:100E5000F2CCC7BC20937F0330938003409381037F
:100E60005093820380916E00826080936E00E3CC89
:100E7000C092B300209377033093780340937903B3
:100E800050937A0380917000826080937000D3CC7D
:100E9000E1E0CE1AD108E108F108F8EE8F0EF3E098
:100EA0009F1EA11CB11CC114D104E104F10409F47A
:100EB000D6CC0E945202681979098A099B09683EBA
:100EC00073408105910520F7CACC809185039091EC
:100ED0008603892B19F485E00E94E60180E090E00A
:100EE000892B09F446CC0E94000043CC80ED97E0AA
:100EF000909384038093830308950E9484076894E9
:100F0000B1110C94130808950E94F80788F09F57B8
:100F100098F0B92F9927B751B0F0E1F0660F771F1D
:100F2000881F991F1AF0BA95C9F714C0B13091F013
:100F30000E941208B1E008950C941208672F782FD0
:100F40008827B85F39F0B93FCCF3869577956795D8
:100F5000B395D9F73EF490958095709561957F4F44
:100F60008F4F9F4F0895E89409C097FB3EF49095EA
:100F70008095709561957F4F8F4F9F4F9923A9F072
:100F8000F92F96E9BB279395F69587957795679501
:100F9000B795F111F8CFFAF4BB0F11F460FF1BC045
:100FA0006F5F7F4F8F4F9F4F16C0882311F096E9D8
:100FB00011C0772321F09EE8872F762F05C0662386
:100FC00071F096E8862F70E060E02AF09A95660F3F
:100FD000771F881FDAF7880F9695879597F90895F8
:100FE00057FD9058440F551F59F05F3F71F04795DA
:100FF000880F97FB991F61F09F3F79F087950895BF
:10100000121613061406551FF2CF4695F1DF08C0DD
:10101000161617061806991FF1CF869571056105FA
:1010200008940895E894BB2766277727CB0197F9A2
:1010300008950E942C080C949D080E948F0838F097
:101040000E94960820F0952311F00C9486080C94C9
:101050008C0811240C9413080E94F00770F3959FDC
:10106000C1F3950F50E0551F629FF001729FBB279F
:10107000F00DB11D639FAA27F00DB11DAA1F649F3B
:101080006627B00DA11D661F829F2227B00DA11DEE
:10109000621F739FB00DA11D621F839FA00D611D74
:1010A000221F749F3327A00D611D231F849F600D95
:1010B000211D822F762F6A2F11249F5750409AF0BE
:1010C000F1F088234AF0EE0FFF1FBB1F661F771F4A
:1010D000881F91505040A9F79E3F510580F00C9415
:1010E00086080C9413085F3FE4F3983ED4F386958A
:1010F00077956795B795F795E7959F5FC1F7FE2BB5
:10110000880F911D9695879597F9089597F99F6790
:1011100080E870E060E008959FEF80EC089500247F
:101120000A941616170618060906089500240A944C
:1011300012161306140605060895092E0394000CD2
:1011400011F4882352F0BB0F40F4BF2B11F460FF61
:1011500004C06F5F7F4F8F4F9F4F089597FB072EFF
:1011600016F4009407D077FD09D00E94120907FCFD
:1011700005D03EF4909581959F4F089570956195A7
:101180007F4F0895A1E21A2EAA1BBB1BFD010DC0C3
:10119000AA1FBB1FEE1FFF1FA217B307E407F50727
:1011A00020F0A21BB30BE40BF50B661F771F881F03
:1011B000991F1A9469F760957095809590959B0199
:1011C000AC01BD01CF010895052E97FB1EF40094DC
:1011D0000E94FB0857FD07D00E94C20807FC03D0FD
:1011E0004EF40C94FB0850954095309521953F4F57
:1011F0004F4F5F4F089590958095709561957F4F03
:101200008F4F9F4F0895EE0FFF1F881F8BBF0790D2
:10121000F691E02D19940E942609B7FF0895821BCC
:10122000930B0895AA1BBB1B51E107C0AA1FBB1F4C
:10123000A617B70710F0A61BB70B881F991F5A9562
:10124000A9F780959095BC01CD010895A29FB001AA
:10125000B39FC001A39F700D811D1124911DB29FEA
:0E126000700D811D1124911D0895F894FFCF8B
:10126E00FFB801FCFFB801FCFFB8011000B8011077
:10127E0000B8011000B80110005D01080000000860
:10128E0000B801FCFFB801FCFFB8011000B8011056
:10129E0000B8011000B80110005D01080000000840
:1012AE0000B8010400B8010400B80104005D01F8A3
:1012BE00FF0B021000B80104005D01F8FF0B0210D5
:1012CE0000B801020093020400930204009302048A
:1012DE0000BA02F8FF0B021000B80104005D01F81D
:1012EE00FF0B021000B801020070030400B801F8F1
:1012FE00FFB8011000700304003F03F8FF10031045
:10130E00006E0210004B0210006E02080000000872
:10131E0000B80108006E0204004B02F8FF2A02100A
:10132E00000B021000EE0110000B0210000000086E
:10133E00005D0108009F0104005D01F8FFB801F097
:10134E00FF0B020400B801F8FF0B0210009302021B
:10135E000070030400B801F8FFB801100070030418
:10136E00003F03F8FF100310006E0210004B021036
:10137E00006E02080000000800B80108006E0204AA
:10138E00004B02F8FF2A0210000B021000EE0110B3
:10139E00000B021000000008005D0108009F010410
:1013AE00005D01F8FFB801F0FFB80104005D01F81F
:0A13BE00FF0B021000B8010200004E
:00000001FF
