:100000000C9425010C9446010C9446010C94460175
:100010000C9446010C9446010C9446010C94460144
:100020000C9446010C9446010C9446010C94460134
:100030000C9446010C9464020C9446010C94460105
:100040000C9446010C9446010C9446010C94460114
:100050000C9446010C9446010C9446010C94C40285
:100060000C9446010C9446010C9446010C944601F4
:100070000C9446010C9446010C9446010C944601E4
:100080000C9446010C9446010C9446010C944601D4
:100090000C9446010C9446010C9446010C944601C4
:1000A0000C9446010C9446010C9446010C944601B4
:1000B0000C9446010C9446010C9446010C944601A4
:1000C0000C9446010C9446010C9446010C94460194
:1000D0000C9446010C9446010C9446010C94460184
:1000E0000C9446010C9485010C94A7010C948F018B
:1000F0000C9493010C946C010C9499010C94700174
:100100000C948B010C94A1010C949D010C9474012E
:100110000C947B010C9481010C94A6010C94AB010E
:100120000C9466010C947801000021002400270043
:100130002A002D00300033000101000004010701F6
:100140000A0100002200250028002B002E003100AB
:10015000340002010000050108010B01020000202B
:10016000002300260029002C002F0032000001008F
:100170000003010601090105050505070508080832
:1001800008020202020A0A08080404040401010128
:100190000101010101030303030303030304070730
:1001A000070C0C0C0C0C0C0C0C02020202060606CE
:1001B00006060606060B0B0B0B0B0B0B0B010210B6
:1001C0002020080810204010204080020102010871
:1001D0000402010102040810204080804020100821
:1001E000040201800402018040201008040201087A
:1001F00004020101020408102040800102040810DA
:1002000020408000000A0B02090C0D0E08070304B1
:1002100001000000000000000000000000000000DD
:1002200000000000000000000000000000000012BC
:10023000111000000000000000000000000000009D
:100240000000000000000000000011241FBECFEFDE
:10025000D1E2DEBFCDBF00E00CBF13E0A0E0B2E012
:10026000E0ECF2E100E00BBF02C007900D92A23972
:10027000B107D9F723E0A2E9B3E001C01D92AD3B7D
:10028000B207E1F70E940E030C945E090C94000083
:100290008150823108F05AC0E82FF0E08827EC5AEC
:1002A000FE4F8F4F0C9440097401780166016C0178
:1002B0007001A6017B01810185018B018F019301F2
:1002C00099019D01A601A101A701AB0180918000C8
:1002D0008F77809380000895809180008F7DF9CF83
:1002E00080918000877FF5CF84B58F7784BD089596
:1002F00084B58F7DFBCF8091B0008F778093B00065
:1003000008958091B0008F7DF9CF809190008F7714
:10031000809390000895809190008F7DF9CF809117
:100320009000877FF5CF8091A0008F778093A00009
:1003300008958091A0008F7DF9CF8091A000877FE4
:10034000F5CF809120018F778093200108958091CF
:1003500020018F7DF9CF80912001877FF5CFCF934A
:10036000DF93E9E1F2E08491E3EDF1E0D491EDE88F
:10037000F1E0C491CC23A1F081110E944801EC2F3F
:10038000F0E0EE0FFF1FE35AFE4FA591B491EC9100
:10039000ED2381E090E009F480E0DF91CF910895B2
:1003A00080E090E0FACFCF93DF9390910002891321
:1003B00010C0ECE5F1E0E4919FEF90930002E23091
:1003C00009F440C058F5EE2309F433C0E13009F4D4
:1003D00033C0282F30E0F901ED5FFD4F8491F90122
:1003E000E354FE4FD491F901E958FE4FC491CC2358
:1003F00091F081110E944801EC2FF0E0EE0FFF1FF9
:10040000EE5BFE4FA591B4918FB7F894EC91D09527
:10041000DE23DC938FBFDF91CF910895E43049F163
:1004200010F1E530B1F6909173009D7F90937300C9
:10043000D0CF10926E00CDCF90916F009D7F9093A2
:100440006F00C7CF909170009D7F9093700091E0F6
:100450009093B0009091B100987F94609093B10018
:100460001092B300B6CF909171009D7F9093710070
:10047000B0CF909172009D7F90937200AACF3FB74A
:10048000F8948091970390919803A0919903B0916B
:100490009A0326B5A89B05C02F3F19F00196A11D10
:1004A000B11D3FBFBA2FA92F982F8827BC01CD01BE
:1004B000620F711D811D911D42E0660F771F881F1D
:1004C000991F4A95D1F708951F920F920FB60F9278
:1004D00011240BB60F922F933F934F935F936F931B
:1004E0007F938F939F93AF93BF93EF93FF938091ED
:1004F000AF039091B003A091B103B091B203892BE7
:100500008A2B8B2BE1F190919E03E0919F03F09158
:10051000A0038081892780838091AF039091B003ED
:10052000A091B103B091B203181619061A061B0662
:100530009CF48091AF039091B003A091B103B0916E
:10054000B2030197A109B1098093AF039093B0035F
:10055000A093B103B093B203FF91EF91BF91AF911C
:100560009F918F917F916F915F914F913F912F91CB
:100570000F900BBE0F900FBE0F901F90189580919B
:1005800000020E94D301E8CF1F920F920FB60F9284
:1005900011242F933F938F939F93AF93BF93809199
:1005A000930390919403A0919503B0919603309199
:1005B000920323E0230F2D3758F50196A11DB11D9D
:1005C000209392038093930390939403A0939503B5
:1005D000B09396038091970390919803A09199030B
:1005E000B0919A030196A11DB11D8093970390933A
:1005F0009803A0939903B0939A03BF91AF919F91F1
:100600008F913F912F910F900FBE0F901F901895D3
:1006100026E8230F0296A11DB11DD2CFCF93DF9301
:10062000CDB7DEB761970FB6F894DEBF0FBECDBF72
:10063000789484B5826084BD84B5816084BD85B5BD
:10064000826085BD85B5816085BD80916E008160C9
:1006500080936E001092810080918100826080936F
:100660008100809181008160809381008091800071
:100670008160809380008091B10084608093B1009C
:100680008091B00081608093B00080919100826081
:10069000809391008091910081608093910080917E
:1006A00090008160809390008091A100826080938F
:1006B000A1008091A10081608093A1008091A000A1
:1006C00081608093A000809121018260809321014C
:1006D00080912101816080932101809120018160BE
:1006E0008093200180917A00846080937A008091C9
:1006F0007A00826080937A0080917A008160809392
:100700007A0080917A00806880937A001092C1000C
:10071000E3EDF1E02491EDE8F1E084918823C9F064
:1007200090E0880F991FFC01E85DFE4F6591749180
:10073000FC01EE5BFE4FA591B4919FB7F894FB01CD
:1007400080812095822380838C91E22FE823EC9393
:100750009FBF0E94AF019093BC038093BB0301979E
:1007600009F099C329EC32E03A83298341E052E051
:1007700058874F8322EC222E21E0322E0CE711E025
:1007800081E993E0E981FA818E179F0709F483C319
:100790000E94AF01892B09F47EC380917B00877F83
:1007A00080937B00F1E4F0937C0080917A00806478
:1007B00080937A0080917A0086FDFCCFE0907800EB
:1007C000F0907900E981FA8161917191FA83E9836E
:1007D000072E000C880B990B0E9406089B01AC01A8
:1007E00060E070E08AEF93E40E945C070E94CE070D
:1007F00069877A878B879C87EF81F885A190B19074
:10080000F887EF838091000229853A852901330F0B
:1008100066087708853011F5ECE5F1E0F491F98B85
:10082000F989F7FF88C0C301B2010E9406082AE9CE
:1008300039E949E95FE30E9492080E94CE076B0103
:10084000770FEE08FF080E943F024B015C01C114C4
:10085000D104E104F10409F012C392CF8F3F19F7DC
:1008600085E080930002ECE5F1E0F491F98BFF3F25
:10087000D1F2F23009F44EC110F5FF2309F445C05E
:10088000F13071F610928000109281008091810009
:1008900088608093810080918100816080938100D5
:1008A000F8018491E82FF0E0EE0FFF1FEE5BFE4FA2
:1008B00085919491F10184918093A1033CC0298991
:1008C000243009F467C108F446C1253009F0A8CFE7
:1008D0001092200110922101809121018860809363
:1008E000210180912101816080932101F80184918F
:1008F000E82FF0E0EE0FFF1FEE5BFE4F8591949125
:10090000F101849180939B0316C014BC15BC84B57F
:10091000826084BD85B5816085BDF8018491E82F32
:10092000F0E0EE0FFF1FEE5BFE4F85919491F10119
:1009300084918093A203F1014491F801849188236A
:1009400099F090E0880F991FFC01E85DFE4FA5919A
:10095000B491FC01EE5BFE4F259134918FB7F89472
:100960009C91492B4C938FBFB701072E000C880B2D
:10097000990B0E94060820E030E040E05BE30E9413
:1009800092086B017C01B501BB0C880B990B0E948E
:1009900006089B01AC01C701B6010E9492080E94A3
:1009A000CE076D877E878F87988B2D853E85490181
:1009B000B12CA12C60E072E18AE790E0A5010E94D1
:1009C00021092B833C834D835E8369017A0131E0E9
:1009D000C31AD108E108F10889898D7F09F074C133
:1009E0004FEFC416D104E104F10409F00CF43BC14B
:1009F00060E472E48FE090E0A50194010E94210977
:100A000069017A0181E0C81AD108E108F1089989E1
:100A1000923009F0DCC082E0EFEFCE16D104E104A1
:100A2000F10409F00CF46FC060E970ED83E090E030
:100A3000A50194010E94210969017A01F1E0CF1A10
:100A4000D108E108F10883E02FEFC216D104E104D8
:100A5000F10409F00CF457C068E478EE81E090E00E
:100A6000A50194010E94210969017A0181E0C81A57
:100A7000D108E108F10884E09FEFC916D104E10430
:100A8000F10409F00CF43FC064E274EF80E090E000
:100A9000A50194010E94210969017A01E1E0CE1AC1
:100AA000D108E108F10885E03FEFC316D104E10465
:100AB000F10449F140F162E17AE780E090E0A501BC
:100AC00094010E94210969017A01E1E0CE1AD1085E
:100AD000E108F10886E0FFEFCF16D104E104F1044C
:100AE00091F088F0CB80DC80ED80FE809AE0F59478
:100AF000E794D794C7949A95D1F731E0C31AD108F7
:100B0000E108F10887E09091B100987F892B8093EC
:100B1000B100B1C01092B0001092B1008091B0004D
:100B200082608093B0008091B10081608093B100B9
:100B3000F8018491E82FF0E0EE0FFF1FEE5BFE4F0F
:100B4000859194919093A00380939F03F1018491E8
:100B500080939E03F0CE10929000109291008091AD
:100B600091008860809391008091910081608093D2
:100B70009100F8018491E82FF0E0EE0FFF1FEE5B8B
:100B8000FE4F85919491F101849180939D03F3E050
:100B9000F98BD1CE1092A0001092A1008091A100FB
:100BA00088608093A1008091A10081608093A10062
:100BB000F8018491E82FF0E0EE0FFF1FEE5BFE4F8F
:100BC00085919491F101849180939C03B4CE3FEF81
:100BD000C316D104E104F10409F00CF473C068E415
:100BE00078EE81E090E0A50194010E94210969015D
:100BF0007A0181E0C81AD108E108F108998984E0F6
:100C0000911152CF83E02FEFC216D104E104F10419
:100C100071F16CF162E17AE780E090E0A501940166
:100C20000E94210969017A01F1E0CF1AD108E10897
:100C3000F10884E02FEFC216D104E104F104B9F009
:100C4000B0F0CB80DC80ED80FE808AE0F594E79404
:100C5000D794C7948A95D1F741E0C41AD108E10826
:100C6000F10885E004C081E0398931114CCF95B598
:100C7000987F892B85BD2FEF3FEFA90141145104C7
:100C80006104710409F048C08989823009F4D6C032
:100C90000CF0BDC0882309F4C2C0813009F0C3CD77
:100CA000D0928900C09288002093B3033093B4039C
:100CB0004093B5035093B60380916F008260809398
:100CC0006F00B1CD82E0D0CF91E0C114D10441E0FA
:100CD000E406F10484F068E478EE81E090E0A50198
:100CE00094010E94210969017A0181E0C81AD108A2
:100CF000E108F10893E0E989E130E9F480918100AD
:100D0000887F892B809381002FEF3FEFA901411449
:100D100051046104710421F22D853E85220F331F99
:100D2000A985BA850E94480928EE33E040E050E0EA
:100D30000E94FF08A9CFF989F33001F58091910055
:100D4000887F892B809391002FEF3FEFA9014114F9
:100D500051046104710401F7D0929900C092980087
:100D60002093AB033093AC034093AD035093AE0399
:100D70008091710082608093710055CD2989243063
:100D800009F58091A100887F892B8093A1002FEF26
:100D90003FEFA901411451046104710409F0BCCF73
:100DA000D092A900C092A8002093A7033093A80373
:100DB0004093A9035093AA038091720082608093AC
:100DC000720031CD3989353009F055CF809121013C
:100DD000887F892B809321012FEF3FEFA9014114D8
:100DE00051046104710409F097CFD0922901C09297
:100DF00028012093A3033093A4034093A5035093A9
:100E0000A603809173008260809373000CCD998952
:100E1000943031F20CF4A0CF953039F304CDC7BC37
:100E20002093B7033093B8034093B9035093BA03A8
:100E300080916E00826080936E00F5CCC092B3000A
:100E40002093AF033093B0034093B1035093B203A8
:100E500080917000826080937000E5CCE1E0CE1A52
:100E6000D108E108F108F8EE8F0EF3E09F1EA11CF7
:100E7000B11CC114D104E104F10409F4E8CC0E94CE
:100E80003F02681979098A099B09683E7340810508
:100E9000910520F7DCCC8091BB039091BC03892B9A
:100EA00019F485E00E94D30180E090E0892B09F4D9
:100EB00050CC0E9400004DCC0E9470070C94580842
:100EC0000E94510858F00E944A0840F029F45F3F00
:100ED00029F00C94410851110C948C080C9447088B
:100EE0000E94690868F39923B1F3552391F3951B88
:100EF000550BBB27AA2762177307840738F09F5F3B
:100F00005F4F220F331F441FAA1FA9F335D00E2EA7
:100F10003AF0E0E832D091505040E695001CCAF714
:100F20002BD0FE2F29D0660F771F881FBB1F2617D7
:100F300037074807AB07B0E809F0BB0B802DBF01AE
:100F4000FF2793585F4F3AF09E3F510578F00C947D
:100F500041080C948C085F3FE4F3983ED4F38695E7
:100F600077956795B795F7959F5FC9F7880F911D9E
:100F70009695879597F90895E1E0660F771F881F8A
:100F8000BB1F621773078407BA0720F0621B730B3D
:100F9000840BBA0BEE1F88F7E09508950E94D507E1
:100FA0006894B1110C948C0808950E94710888F01F
:100FB0009F5798F0B92F9927B751B0F0E1F0660F1D
:100FC000771F881F991F1AF0BA95C9F714C0B1305E
:100FD00091F00E948B08B1E008950C948B08672F64
:100FE000782F8827B85F39F0B93FCCF3869577958D
:100FF0006795B395D9F73EF4909580957095619576
:101000007F4F8F4F9F4F0895E89409C097FB3EF4A0
:1010100090958095709561957F4F8F4F9F4F992345
:10102000A9F0F92F96E9BB279395F69587957795C3
:101030006795B795F111F8CFFAF4BB0F11F460FF83
:101040001BC06F5F7F4F8F4F9F4F16C0882311F0DB
:1010500096E911C0772321F09EE8872F762F05C0EF
:10106000662371F096E8862F70E060E02AF09A958A
:10107000660F771F881FDAF7880F9695879597F97F
:10108000089597F99F6780E870E060E008959FEF0A
:1010900080EC089500240A9416161706180609060F
:1010A000089500240A9412161306140605060895DE
:1010B000092E0394000C11F4882352F0BB0F40F466
:1010C000BF2B11F460FF04C06F5F7F4F8F4F9F4FA6
:1010D000089557FD9058440F551F59F05F3F71F028
:1010E0004795880F97FB991F61F09F3F79F087958F
:1010F0000895121613061406551FF2CF4695F1DF18
:1011000008C0161617061806991FF1CF86957105A7
:10111000610508940895E894BB2766277727CB01DB
:1011200097F908950E94A5080C9458080E944A084F
:1011300038F00E94510820F0952311F00C944108DA
:101140000C94470811240C948C080E94690870F3D1
:10115000959FC1F3950F50E0551F629FF001729F5C
:10116000BB27F00DB11D639FAA27F00DB11DAA1F6B
:10117000649F6627B00DA11D661F829F2227B00DB8
:10118000A11D621F739FB00DA11D621F839FA00D43
:10119000611D221F749F3327A00D611D231F849F93
:1011A000600D211D822F762F6A2F11249F575040EA
:1011B0009AF0F1F088234AF0EE0FFF1FBB1F661F65
:1011C000771F881F91505040A9F79E3F510580F02E
:1011D0000C9441080C948C085F3FE4F3983ED4F3E0
:1011E000869577956795B795F795E7959F5FC1F7D2
:1011F000FE2B880F911D9695879597F90895A1E28A
:101200001A2EAA1BBB1BFD010DC0AA1FBB1FEE1F80
:10121000FF1FA217B307E407F50720F0A21BB30BCB
:10122000E40BF50B661F771F881F991F1A9469F747
:1012300060957095809590959B01AC01BD01CF01A3
:101240000895052E97FB1EF400940E94380957FD5F
:1012500007D00E94FF0807FC03D04EF40C94380915
:1012600050954095309521953F4F4F4F5F4F0895D2
:1012700090958095709561957F4F8F4F9F4F089502
:10128000EE0FFF1F881F8BBF0790F691E02D19947A
:101290000E944F09B7FF0895821B930B0895A29FE8
:1012A000B001B39FC001A39F700D811D1124911D3A
:1012B000B29F700D811D1124911D0895F894FFCFE8
:1012C000FFB801E40293024B02B801B801B801B8BB
:1012D00001E40293024B02EE01EE011003E40293DB
:1012E000022A027003700310039302E4020000B8A4
:1012F00001E40293024B02B801B801B801E4029381
:10130000024B02EE01EE01EE011003E402930270C3
:1013100003700370037003DC037003100393024B2C
:10132000020000E402E402E402E402E402E402E473
:1013300002700326019302E402100310031003104D
:10134000031003E402E402E402E402E402930293E1
:1013500002E40293027003E402E402E402E402E421
:1013600002E402E402700326019302E40210031077
:1013700003100310031003E402E402E402E4027029
:10138000037003100393024B0204000400040004E2
:101390000002000400040004000400040004000231
:1013A000000400040004000400020004000400041F
:1013B0000004000200020004000400040004000213
:1013C00000040004000400040004000200040004FF
:1013D00000040004000400040004000400040004ED
:1013E00000040004000400020002000400040002E3
:1013F00000040004000200040004000400040001D2
:1014000000040004000200040004000400040004BE
:1014100000040004000400040004000200020004B0
:1014200000040002000400040002000400040004A0
:101430000004000100040004000200040004000491
:10144000000400040004000400040004000400027E
:0214500000009A
:00000001FF
